{
  "contractName": "AdminPiggyBank",
  "abi": [
    {
      "anonymous": false,
      "inputs": [
        {
          "indexed": false,
          "internalType": "address",
          "name": "owner",
          "type": "address"
        }
      ],
      "name": "_AddOwnerRejection",
      "type": "event"
    },
    {
      "anonymous": false,
      "inputs": [
        {
          "indexed": false,
          "internalType": "address",
          "name": "owner",
          "type": "address"
        }
      ],
      "name": "_AddOwnerValidation",
      "type": "event"
    },
    {
      "anonymous": false,
      "inputs": [
        {
          "indexed": false,
          "internalType": "uint256",
          "name": "minOwner",
          "type": "uint256"
        }
      ],
      "name": "_MinOwnerRejection",
      "type": "event"
    },
    {
      "anonymous": false,
      "inputs": [
        {
          "indexed": false,
          "internalType": "uint256",
          "name": "minOwner",
          "type": "uint256"
        }
      ],
      "name": "_MinOwnerValidation",
      "type": "event"
    },
    {
      "anonymous": false,
      "inputs": [
        {
          "indexed": true,
          "internalType": "address",
          "name": "payer",
          "type": "address"
        },
        {
          "indexed": false,
          "internalType": "uint256",
          "name": "amount",
          "type": "uint256"
        },
        {
          "indexed": false,
          "internalType": "uint256",
          "name": "paymentTokenID",
          "type": "uint256"
        }
      ],
      "name": "_Pay",
      "type": "event"
    },
    {
      "anonymous": false,
      "inputs": [
        {
          "indexed": false,
          "internalType": "address",
          "name": "owner",
          "type": "address"
        }
      ],
      "name": "_RemoveOwnerRejection",
      "type": "event"
    },
    {
      "anonymous": false,
      "inputs": [
        {
          "indexed": false,
          "internalType": "address",
          "name": "owner",
          "type": "address"
        }
      ],
      "name": "_RemoveOwnerValidation",
      "type": "event"
    },
    {
      "anonymous": false,
      "inputs": [
        {
          "indexed": true,
          "internalType": "address",
          "name": "to",
          "type": "address"
        },
        {
          "indexed": false,
          "internalType": "uint256",
          "name": "amount",
          "type": "uint256"
        },
        {
          "indexed": false,
          "internalType": "uint256",
          "name": "paymentTokenID",
          "type": "uint256"
        }
      ],
      "name": "_TransferCreated",
      "type": "event"
    },
    {
      "anonymous": false,
      "inputs": [
        {
          "indexed": true,
          "internalType": "address",
          "name": "to",
          "type": "address"
        },
        {
          "indexed": false,
          "internalType": "uint256",
          "name": "amount",
          "type": "uint256"
        },
        {
          "indexed": false,
          "internalType": "uint256",
          "name": "paymentTokenID",
          "type": "uint256"
        }
      ],
      "name": "_TransferRejected",
      "type": "event"
    },
    {
      "anonymous": false,
      "inputs": [
        {
          "indexed": true,
          "internalType": "address",
          "name": "to",
          "type": "address"
        },
        {
          "indexed": false,
          "internalType": "uint256",
          "name": "amount",
          "type": "uint256"
        },
        {
          "indexed": false,
          "internalType": "uint256",
          "name": "paymentTokenID",
          "type": "uint256"
        }
      ],
      "name": "_TransferValidated",
      "type": "event"
    },
    {
      "anonymous": false,
      "inputs": [
        {
          "indexed": false,
          "internalType": "uint256",
          "name": "minOwner",
          "type": "uint256"
        },
        {
          "indexed": false,
          "internalType": "address",
          "name": "voter",
          "type": "address"
        },
        {
          "indexed": false,
          "internalType": "bool",
          "name": "vote",
          "type": "bool"
        }
      ],
      "name": "_VoteForMinOwner",
      "type": "event"
    },
    {
      "anonymous": false,
      "inputs": [
        {
          "indexed": false,
          "internalType": "address",
          "name": "owner",
          "type": "address"
        },
        {
          "indexed": false,
          "internalType": "address",
          "name": "voter",
          "type": "address"
        },
        {
          "indexed": false,
          "internalType": "bool",
          "name": "vote",
          "type": "bool"
        }
      ],
      "name": "_VoteForOwner",
      "type": "event"
    },
    {
      "anonymous": false,
      "inputs": [
        {
          "indexed": true,
          "internalType": "address",
          "name": "to",
          "type": "address"
        },
        {
          "indexed": false,
          "internalType": "uint256",
          "name": "amount",
          "type": "uint256"
        },
        {
          "indexed": false,
          "internalType": "uint256",
          "name": "paymentTokenID",
          "type": "uint256"
        },
        {
          "indexed": true,
          "internalType": "address",
          "name": "voter",
          "type": "address"
        },
        {
          "indexed": false,
          "internalType": "bool",
          "name": "vote",
          "type": "bool"
        }
      ],
      "name": "_VoteForTransfer",
      "type": "event"
    },
    {
      "inputs": [
        {
          "internalType": "address",
          "name": "sender",
          "type": "address"
        },
        {
          "internalType": "uint256",
          "name": "amount",
          "type": "uint256"
        },
        {
          "internalType": "uint256",
          "name": "paymentTokenID",
          "type": "uint256"
        },
        {
          "internalType": "bytes",
          "name": "data",
          "type": "bytes"
        }
      ],
      "name": "CreditReceived",
      "outputs": [],
      "stateMutability": "nonpayable",
      "type": "function"
    },
    {
      "inputs": [
        {
          "internalType": "address[]",
          "name": "owners",
          "type": "address[]"
        },
        {
          "internalType": "uint256",
          "name": "minOwners",
          "type": "uint256"
        }
      ],
      "name": "MultiSigContract_init",
      "outputs": [],
      "stateMutability": "nonpayable",
      "type": "function"
    },
    {
      "inputs": [
        {
          "internalType": "address",
          "name": "owner",
          "type": "address"
        }
      ],
      "name": "addOwner",
      "outputs": [],
      "stateMutability": "nonpayable",
      "type": "function"
    },
    {
      "inputs": [
        {
          "internalType": "uint256",
          "name": "newMinOwners",
          "type": "uint256"
        }
      ],
      "name": "changeMinOwners",
      "outputs": [],
      "stateMutability": "nonpayable",
      "type": "function"
    },
    {
      "inputs": [],
      "name": "rejectMinOwners",
      "outputs": [],
      "stateMutability": "nonpayable",
      "type": "function"
    },
    {
      "inputs": [
        {
          "internalType": "address",
          "name": "owner",
          "type": "address"
        }
      ],
      "name": "rejectOwner",
      "outputs": [],
      "stateMutability": "nonpayable",
      "type": "function"
    },
    {
      "inputs": [
        {
          "internalType": "address",
          "name": "owner",
          "type": "address"
        }
      ],
      "name": "removeOwner",
      "outputs": [],
      "stateMutability": "nonpayable",
      "type": "function"
    },
    {
      "inputs": [],
      "name": "retrieveAllOwners",
      "outputs": [
        {
          "internalType": "address[]",
          "name": "",
          "type": "address[]"
        }
      ],
      "stateMutability": "view",
      "type": "function"
    },
    {
      "inputs": [],
      "name": "retrieveManagerContract",
      "outputs": [
        {
          "internalType": "address",
          "name": "",
          "type": "address"
        }
      ],
      "stateMutability": "view",
      "type": "function"
    },
    {
      "inputs": [],
      "name": "retrieveMinOwners",
      "outputs": [
        {
          "internalType": "uint256",
          "name": "",
          "type": "uint256"
        }
      ],
      "stateMutability": "view",
      "type": "function"
    },
    {
      "inputs": [],
      "name": "retrievePendingMinOwners",
      "outputs": [
        {
          "internalType": "uint256",
          "name": "",
          "type": "uint256"
        }
      ],
      "stateMutability": "view",
      "type": "function"
    },
    {
      "inputs": [],
      "name": "retrievePendingMinOwnersStatus",
      "outputs": [
        {
          "internalType": "uint256",
          "name": "",
          "type": "uint256"
        },
        {
          "internalType": "uint256",
          "name": "",
          "type": "uint256"
        },
        {
          "internalType": "address[]",
          "name": "",
          "type": "address[]"
        }
      ],
      "stateMutability": "view",
      "type": "function"
    },
    {
      "inputs": [
        {
          "internalType": "bool",
          "name": "addedORremove",
          "type": "bool"
        }
      ],
      "name": "retrievePendingOwners",
      "outputs": [
        {
          "internalType": "address[]",
          "name": "",
          "type": "address[]"
        }
      ],
      "stateMutability": "view",
      "type": "function"
    },
    {
      "inputs": [],
      "name": "validateMinOwners",
      "outputs": [],
      "stateMutability": "nonpayable",
      "type": "function"
    },
    {
      "inputs": [
        {
          "internalType": "address",
          "name": "owner",
          "type": "address"
        }
      ],
      "name": "validateOwner",
      "outputs": [],
      "stateMutability": "nonpayable",
      "type": "function"
    },
    {
      "inputs": [
        {
          "internalType": "address[]",
          "name": "owners",
          "type": "address[]"
        },
        {
          "internalType": "uint256",
          "name": "minOwners",
          "type": "uint256"
        },
        {
          "internalType": "address",
          "name": "managerContractAddress",
          "type": "address"
        }
      ],
      "name": "AdminPiggyBank_init",
      "outputs": [],
      "stateMutability": "nonpayable",
      "type": "function"
    },
    {
      "inputs": [
        {
          "internalType": "address",
          "name": "receiver",
          "type": "address"
        },
        {
          "internalType": "uint256",
          "name": "amount",
          "type": "uint256"
        },
        {
          "internalType": "uint256",
          "name": "paymentTokenID",
          "type": "uint256"
        }
      ],
      "name": "transfer",
      "outputs": [],
      "stateMutability": "nonpayable",
      "type": "function"
    },
    {
      "inputs": [],
      "name": "approve",
      "outputs": [],
      "stateMutability": "nonpayable",
      "type": "function"
    },
    {
      "inputs": [],
      "name": "reject",
      "outputs": [],
      "stateMutability": "nonpayable",
      "type": "function"
    },
    {
      "inputs": [],
      "name": "retrieveTransferInfo",
      "outputs": [
        {
          "components": [
            {
              "internalType": "address",
              "name": "_to",
              "type": "address"
            },
            {
              "internalType": "uint256",
              "name": "_amount",
              "type": "uint256"
            },
            {
              "internalType": "uint256",
              "name": "_paymentTokenID",
              "type": "uint256"
            },
            {
              "internalType": "uint256",
              "name": "_validations",
              "type": "uint256"
            },
            {
              "internalType": "uint256",
              "name": "_rejections",
              "type": "uint256"
            },
            {
              "internalType": "address[]",
              "name": "_voters",
              "type": "address[]"
            }
          ],
          "internalType": "struct IAdminPiggyBank._TransferStruct",
          "name": "",
          "type": "tuple"
        }
      ],
      "stateMutability": "view",
      "type": "function"
    }
  ],
  "bytecode": "0x608060405234801561001057600080fd5b50612700806100206000396000f3fe608060405234801561001057600080fd5b50600436106100fc5760003560e01c8063095bcdb6146101015780630bee185e1461011657806312424e3f14610129578063173825d9146101315780632edbe7fc1461014457806330ade9221461015b5780634dc415de146101635780635888ebb31461016b5780635b362e84146101825780636151c3431461019b57806365b973e5146101b05780636b299604146101b85780637065cb48146101d857806376f8f90f146101eb5780638266251f146101fe578063a93d5ed614610211578063c3079ae714610219578063c66433ea14610221578063cdfba54b14610234578063ce33d58a14610247575b600080fd5b61011461010f366004611ff9565b61025a565b005b610114610124366004612188565b61063f565b610114610808565b61011461013f366004611fd5565b610814565b6006545b6040519081526020015b60405180910390f35b61011461084f565b610114610859565b610173610863565b60405161015293929190612578565b600a546001600160a01b031660405161015291906123a3565b6101a36108d7565b6040516101529190612485565b600554610148565b6101cb6101c63660046122f3565b6109b9565b6040516101529190612405565b6101146101e6366004611fd5565b610a7d565b6101146101f9366004611fd5565b610a95565b61011461020c36600461202e565b610ae6565b6101cb610cc1565b610114610d25565b61011461022f36600461232d565b610d2f565b6101146102423660046121cc565b610d72565b610114610255366004611fd5565b610dfa565b826001600160a01b0381166102b65760405162461bcd60e51b815260206004820152601f60248201527f57652063616e6e6f74207472616e7366657220746f206164647265737320300060448201526064015b60405180910390fd5b82826000600a60009054906101000a90046001600160a01b03166001600160a01b031663e220ad956040518163ffffffff1660e01b815260040160006040518083038186803b15801561030857600080fd5b505afa15801561031c573d6000803e3d6000fd5b505050506040513d6000823e601f3d908101601f1916820160405261034491908101906120e8565b6006815181106103565761035661267b565b60200260200101519050806001600160a01b031663b049473f6040518163ffffffff1660e01b815260040160006040518083038186803b15801561039957600080fd5b505afa1580156103ad573d6000803e3d6000fd5b505050506040513d6000823e601f3d908101601f191682016040526103d59190810190612226565b51821061043b5760405162461bcd60e51b815260206004820152602e60248201527f5468697320746f6b656e20496420646f6573206e6f742065786973742079657460448201526d20696e207468652073797374656d60901b60648201526084016102ad565b600a546040805163e220ad9560e01b8152905185926001600160a01b03169163e220ad95916004808301926000929190829003018186803b15801561047f57600080fd5b505afa158015610493573d6000803e3d6000fd5b505050506040513d6000823e601f3d908101601f191682016040526104bb91908101906120e8565b6006815181106104cd576104cd61267b565b60209081029190910101516040516329fd178d60e11b8152306004820152602481018590526001600160a01b03909116906353fa2f1a9060440160206040518083038186803b15801561051f57600080fd5b505afa158015610533573d6000803e3d6000fd5b505050506040513d601f19601f820116820180604052508101906105579190612346565b10156105be5760405162461bcd60e51b815260206004820152603060248201527f57652063616e6e6f74207472616e73666572206d6f7265207468616e2074686560448201526f2063757272656e742062616c616e636560801b60648201526084016102ad565b60006105c981610e05565b600b80546001600160a01b0319166001600160a01b038a16908117909155600c889055600d8790556040517f2fb3d98c92ee1dd38a696149e5a394729611ae7d8222e6eb271f7920424743a990610623908a908a9061256a565b60405180910390a26106356001610eae565b5050505050505050565b600054610100900460ff1661065a5760005460ff161561065e565b303b155b61067a5760405162461bcd60e51b81526004016102ad90612437565b600054610100900460ff1615801561069c576000805461ffff19166101011790555b8183516106a98282611282565b6001846106b68282611282565b600586905560005b87518110156107ec57600160000160008983815181106106e0576106e061267b565b6020908102919091018101516001600160a01b031682528101919091526040016000205460ff161561073c5760405162461bcd60e51b8152602060048201526005602482015264454332392d60d81b60448201526064016102ad565b60018060000160008a84815181106107565761075661267b565b6020908102919091018101516001600160a01b03168252810191909152604001600020805460ff1916911515919091179055875160029089908390811061079f5761079f61267b565b60209081029190910181015182546001810184556000938452919092200180546001600160a01b0319166001600160a01b03909216919091179055806107e48161264a565b9150506106be565b50505050508015610803576000805461ff00191690555b505050565b6108126001610eae565b565b80600161082182826112a6565b60055460025461083390600190612633565b61083d8282611282565b6108488560046112fd565b5050505050565b6108126001611389565b6108126000610eae565b60008060606007546008546009808054806020026020016040519081016040528092919081815260200182805480156108c557602002820191906000526020600020905b81546001600160a01b031681526001909101906020018083116108a7575b50505050509050925092509250909192565b6109196040518060c0016040528060006001600160a01b0316815260200160008152602001600081526020016000815260200160008152602001606081525090565b6040805160c081018252600b80546001600160a01b03168252600c54602080840191909152600d5483850152600e546060840152600f546080840152601080548551818402810184019096528086529394929360a0860193928301828280156109ab57602002820191906000526020600020905b81546001600160a01b0316815260019091019060200180831161098d575b505050505081525050905090565b60608115610a20576003805460408051602080840282018101909252828152929190830182828015610a1457602002820191906000526020600020905b81546001600160a01b031681526001909101906020018083116109f6575b50505050509050919050565b6004805460408051602080840282018101909252828152929190830182828015610a14576020028201919060005260206000209081546001600160a01b031681526001909101906020018083116109f65750505050509050919050565b806000610a8a82826112a6565b6108038360036112fd565b610a9e816114d7565b151560011415610ad857600254610ab790600190612633565b6005541115610ad85760405162461bcd60e51b81526004016102ad90612418565b610ae3816001611558565b50565b600a546040805163e220ad9560e01b8152905133926001600160a01b03169163e220ad95916004808301926000929190829003018186803b158015610b2a57600080fd5b505afa158015610b3e573d6000803e3d6000fd5b505050506040513d6000823e601f3d908101601f19168201604052610b6691908101906120e8565b600681518110610b7857610b7861267b565b60200260200101516001600160a01b0316816001600160a01b03161480610c535750600a60009054906101000a90046001600160a01b03166001600160a01b031663e220ad956040518163ffffffff1660e01b815260040160006040518083038186803b158015610be857600080fd5b505afa158015610bfc573d6000803e3d6000fd5b505050506040513d6000823e601f3d908101601f19168201604052610c2491908101906120e8565b600781518110610c3657610c3661267b565b60200260200101516001600160a01b0316816001600160a01b0316145b610cb55760405162461bcd60e51b815260206004820152602d60248201527f4974206973206e6f742066726f6d206f6e65206f66207468652063657274696660448201526c69656420636f6e74726163747360981b60648201526084016102ad565b610848858585856119de565b606060018001805480602002602001604051908101604052809291908181526020018280548015610d1b57602002820191906000526020600020905b81546001600160a01b03168152600190910190602001808311610cfd575b5050505050905090565b6108126000611389565b336001610d3c82826112a6565b6000610d4781611a27565b6002548490610d568282611282565b600186610d638282611282565b60068890556106356001611389565b600054610100900460ff16610d8d5760005460ff1615610d91565b303b155b610dad5760405162461bcd60e51b81526004016102ad90612437565b600054610100900460ff16158015610dcf576000805461ffff19166101011790555b610dd9848461063f565b610de282611a9c565b8015610df4576000805461ff00191690555b50505050565b610ae3816000611558565b8015610e5e57600b546001600160a01b0316610ae35760405162461bcd60e51b81526020600482015260186024820152775472616e73666572206e6f7420696e2070726f677265737360401b60448201526064016102ad565b600b546001600160a01b031615610ae35760405162461bcd60e51b81526020600482015260146024820152735472616e7366657220696e2070726f677265737360601b60448201526064016102ad565b336001610ebb82826112a6565b6001610ec681610e05565b33600b600501805480602002602001604051908101604052809291908181526020018280548015610f2057602002820191906000526020600020905b81546001600160a01b03168152600190910190602001808311610f02575b5050505050610f2f8282611b17565b600b54600c54600d546040805192835260208301919091528815159082015233916001600160a01b0316907f524c78bcd46a1ca402c0fabeef8c06f91fe44e513960bed721dc8fa8e8afa7b99060600160405180910390a3601080546001810182556000919091527f1b6847dc741a1b0cd08d278845f9d819d87b734759afb55fe2de5cb82a9ae6720180546001600160a01b03191633179055851561120557600e8054906000610fdf8361264a565b9091555050600554600e541061120057600c54600b54600a546040805163e220ad9560e01b8152905173__ItemsLibrary__________________________946341650a6e9490936001600160a01b039182169391169163e220ad9591600480820192600092909190829003018186803b15801561105b57600080fd5b505afa15801561106f573d6000803e3d6000fd5b505050506040513d6000823e601f3d908101601f1916820160405261109791908101906120e8565b6006815181106110a9576110a961267b565b60200260200101516001600160a01b031663b049473f6040518163ffffffff1660e01b815260040160006040518083038186803b1580156110e957600080fd5b505afa1580156110fd573d6000803e3d6000fd5b505050506040513d6000823e601f3d908101601f191682016040526111259190810190612226565b600d54815181106111385761113861267b565b602002602001015160000151600060405180602001604052806000815250600b600201546040518763ffffffff1660e01b815260040161117d969594939291906124e2565b60006040518083038186803b15801561119557600080fd5b505af41580156111a9573d6000803e3d6000fd5b5050600b54600c54600d546040516001600160a01b0390931694507f6a9f8b342979e044647b781c6d6ae9f3868bb5a02cae79b553c1778bfddeca4c93506111f09261256a565b60405180910390a2611200611bd6565b61127a565b600f80549060006112158361264a565b9091555050600554600f541061127a57600b54600c54600d546040516001600160a01b03909316927f05b5db4a36f4b1c7e2b45516a57fbefca7f6829a63a32395b89ebd5e1c4585fe9261126a92909161256a565b60405180910390a261127a611bd6565b505050505050565b808211156112a25760405162461bcd60e51b81526004016102ad90612418565b5050565b6001600160a01b03821660009081526001602052604090205460ff161515811515146112a25760405162461bcd60e51b81526004016102ad906020808252600490820152634543392d60e01b604082015260600190565b33600161130a82826112a6565b8360006113178282611c07565b84546001808201875560008781526020812090920180546001600160a01b0319166001600160a01b038a1617905586546113519190612633565b6001600160a01b0388166000908152600160208190526040909120600201829055909150611380908890611558565b50505050505050565b33600161139682826112a6565b60016113a181611a27565b3360098054806020026020016040519081016040528092919081815260200182805480156113f857602002820191906000526020600020905b81546001600160a01b031681526001909101906020018083116113da575b50505050506114078282611b17565b851561142b57600160076000828254611420919061261b565b909155506114449050565b60016008600082825461143e919061261b565b90915550505b600980546001810182556000919091527f6e1540171b6c0c960b71a7020d9f60077f6af931a8bbf590da0223dacf75c7af018054336001600160a01b031990911681179091556006546040805191825260208201929092528715158183015290517fb335599a2dd1eaaedeb810215d45e667a6c5ac7bcfd03c29e597db8bf0cddcc69181900360600190a161127a611c59565b6004546001600160a01b03821660009081526001602052604081206002015490911161150557506000919050565b6001600160a01b0382166000908152600160205260409020600201546004805490919081106115365761153661267b565b6000918252602090912001546001600160a01b03928316921691909114919050565b33600161156582826112a6565b8360016115728282611c07565b6001600160a01b03861660009081526001602090815260409182902060050180548351818402810184019094528084523393928301828280156115de57602002820191906000526020600020905b81546001600160a01b031681526001909101906020018083116115c0575b50505050506115ed8282611b17565b604080516001600160a01b038a1681523360208201528815158183015290517fc6f241efc3de3ce31d0e682102cc781f0605f0f90d72addfea699e4aea85dd799181900360600190a16001600160a01b038816600090815260016020818152604083206005018054928301815583529091200180546001600160a01b0319163317905586156118f0576001600160a01b038816600090815260016020526040812060030180549161169d8361264a565b90915550506005546001600160a01b038916600090815260016020526040902060030154106118eb5760046116d189611cf6565b156117a4575060028054600180820183557f405787fa12a823e0f2b7631cc41b3ba8828b3321ca811111fa75cd3aa3bb5ace90910180546001600160a01b0319166001600160a01b038c169081179091556000908152602082905260409020805460ff191682179055905460039161174891612633565b6001600160a01b038a166000908152600160208190526040918290200191909155517f45bbe5ceeddcb6d0b4045349efc87a3fde966578e3970cda6f53bfc76efaf9f790611797908b906123a3565b60405180910390a16118df565b6001600160a01b03891660009081526001602081905260409182902001549051633c39c19f60e11b815273__AddressLibrary________________________90637873833e906117fb90849060029060040161256a565b60006040518083038186803b15801561181357600080fd5b505af4158015611827573d6000803e3d6000fd5b5050600254831015915061187d90505780600160000160006001800184815481106118545761185461267b565b60009182526020808320909101546001600160a01b031683528201929092526040019020600101555b6001600160a01b038a166000908152600160208190526040808320805460ff1916815590910191909155517f82bcab3b042f3e2143a9d33d07fa130afdf763f17a45679670f0e39f12064ca8906118d5908c906123a3565b60405180910390a1505b6118e98982611d55565b505b610635565b6001600160a01b03881660009081526001602052604081206004018054916119178361264a565b90915550506005546001600160a01b0389166000908152600160205260409020600401541061063557600461194b89611cf6565b1561199157506040516003907f622a69297177c029df8c1ba7f4d2d59881089b571ae96800e634aff50d67492e90611984908b906123a3565b60405180910390a16119c9565b7f547e31c58b802b63bc89f1109a132a291b0527c9196c97759829aeaecd3c2d39896040516119c091906123a3565b60405180910390a15b6119d38982611d55565b505050505050505050565b836001600160a01b03167faef711f818f5d24f55a9c2d7da0afa5edd0420e1505ff8e60c344ce836e3e86e8484604051611a1992919061256a565b60405180910390a250505050565b8015611a6457600654610ae35760405162461bcd60e51b8152602060048201526005602482015264454333312d60d81b60448201526064016102ad565b60065415610ae35760405162461bcd60e51b8152602060048201526005602482015264454333302d60d81b60448201526064016102ad565b600054610100900460ff16611ab75760005460ff1615611abb565b303b155b611ad75760405162461bcd60e51b81526004016102ad90612437565b600054610100900460ff16158015611af9576000805461ffff19166101011790555b611b0282611e66565b80156112a2576000805461ff00191690555050565b60405163f7cf62d760e01b815273__AddressLibrary________________________9063f7cf62d790611b5090859085906004016123b7565b60206040518083038186803b158015611b6857600080fd5b505af4158015611b7c573d6000803e3d6000fd5b505050506040513d601f19601f82011682018060405250810190611ba09190612310565b156112a25760405162461bcd60e51b81526004016102ad906020808252600490820152634543352d60e01b604082015260600190565b600b80546001600160a01b03191681556000600c819055600d819055600e819055600f8190556112a2601082611f28565b611c1082611cf6565b80611c1f5750611c1f826114d7565b1515811515146112a25760405162461bcd60e51b8152602060048201526005602482015264454331302d60d81b60448201526064016102ad565b611c67600754600554611ef3565b15611cb05760065460058190556040519081527f09cfdf09b84b5390e2f9e64a6b66bdfd4e3b7a611dfdd07cde2f5289ecdaace7906020015b60405180910390a1610812611f0f565b611cbe600854600554611ef3565b15610812577f6005dc34d50a3e2ea64571b58119d8a81074b8e2db57a77c28e664641733308f600654604051611ca091815260200190565b6003546001600160a01b038216600090815260016020526040812060020154909111611d2457506000919050565b6001600160a01b0382166000908152600160205260409020600201546003805490919081106115365761153661267b565b6001600160a01b03821660009081526001602052604090819020600201549051633c39c19f60e11b815273__AddressLibrary________________________90637873833e90611dab908490869060040161256a565b60006040518083038186803b158015611dc357600080fd5b505af4158015611dd7573d6000803e3d6000fd5b505050508082805490501115611e2a578060016000016000848481548110611e0157611e0161267b565b60009182526020808320909101546001600160a01b031683528201929092526040019020600201555b6001600160a01b038316600090815260016020526040812060028101829055600381018290556004810182905561080391600590910190611f28565b600054610100900460ff16611e815760005460ff1615611e85565b303b155b611ea15760405162461bcd60e51b81526004016102ad90612437565b600054610100900460ff16158015611ec3576000805461ffff19166101011790555b600a80546001600160a01b0319166001600160a01b03841617905580156112a2576000805461ff00191690555050565b600081831015611f0557506000611f09565b5060015b92915050565b6000600681905560078190556008819055610812906009905b5080546000825590600052602060002090810190610ae391905b80821115611f565760008155600101611f42565b5090565b600082601f830112611f6b57600080fd5b81356020611f80611f7b836125f8565b6125c8565b80838252828201915082860187848660051b8901011115611fa057600080fd5b60005b85811015611fc8578135611fb6816126a7565b84529284019290840190600101611fa3565b5090979650505050505050565b600060208284031215611fe757600080fd5b8135611ff2816126a7565b9392505050565b60008060006060848603121561200e57600080fd5b8335612019816126a7565b95602085013595506040909401359392505050565b6000806000806080858703121561204457600080fd5b843561204f816126a7565b935060208581013593506040860135925060608601356001600160401b038082111561207a57600080fd5b818801915088601f83011261208e57600080fd5b8135818111156120a0576120a0612691565b6120b2601f8201601f191685016125c8565b915080825289848285010111156120c857600080fd5b808484018584013760008482840101525080935050505092959194509250565b600060208083850312156120fb57600080fd5b82516001600160401b0381111561211157600080fd5b8301601f8101851361212257600080fd5b8051612130611f7b826125f8565b80828252848201915084840188868560051b870101111561215057600080fd5b600094505b8385101561217c578051612168816126a7565b835260019490940193918501918501612155565b50979650505050505050565b6000806040838503121561219b57600080fd5b82356001600160401b038111156121b157600080fd5b6121bd85828601611f5a565b95602094909401359450505050565b6000806000606084860312156121e157600080fd5b83356001600160401b038111156121f757600080fd5b61220386828701611f5a565b93505060208401359150604084013561221b816126a7565b809150509250925092565b6000602080838503121561223957600080fd5b82516001600160401b0381111561224f57600080fd5b8301601f8101851361226057600080fd5b805161226e611f7b826125f8565b80828252848201915084840188868560061b870101111561228e57600080fd5b60009450845b848110156122e557604080838c0312156122ac578687fd5b6122b46125a0565b83516122bf816126a7565b8152838901516122ce816126bc565b818a01528552938701939190910190600101612294565b509098975050505050505050565b60006020828403121561230557600080fd5b8135611ff2816126bc565b60006020828403121561232257600080fd5b8151611ff2816126bc565b60006020828403121561233f57600080fd5b5035919050565b60006020828403121561235857600080fd5b5051919050565b600081518084526020808501945080840160005b838110156123985781516001600160a01b031687529582019590820190600101612373565b509495945050505050565b6001600160a01b0391909116815260200190565b6001600160a01b038381168252604060208084018290528451918401829052600092858201929091906060860190855b818110156122e55785518516835294830194918301916001016123e7565b602081526000611ff2602083018461235f565b602080825260059082015264454331392d60d81b604082015260600190565b6020808252602e908201527f496e697469616c697a61626c653a20636f6e747261637420697320616c72656160408201526d191e481a5b9a5d1a585b1a5e995960921b606082015260800190565b6020815260018060a01b038251166020820152602082015160408201526040820151606082015260608201516080820152608082015160a0820152600060a083015160c0808401526124da60e084018261235f565b949350505050565b8681526000602060018060a01b0380891682850152808816604085015250851515606084015260c0608084015284518060c085015260005b818110156125365786810183015185820160e00152820161251a565b8181111561254857600060e083870101525b5060a08401949094525050601f91909101601f19160160e00195945050505050565b918252602082015260400190565b838152826020820152606060408201526000612597606083018461235f565b95945050505050565b604080519081016001600160401b03811182821017156125c2576125c2612691565b60405290565b604051601f8201601f191681016001600160401b03811182821017156125f0576125f0612691565b604052919050565b60006001600160401b0382111561261157612611612691565b5060051b60200190565b6000821982111561262e5761262e612665565b500190565b60008282101561264557612645612665565b500390565b600060001982141561265e5761265e612665565b5060010190565b634e487b7160e01b600052601160045260246000fd5b634e487b7160e01b600052603260045260246000fd5b634e487b7160e01b600052604160045260246000fd5b6001600160a01b0381168114610ae357600080fd5b8015158114610ae357600080fdfea26469706673582212203327920024b22897d575eba9a978135ffa9682fa4d216d7debbc7673b24563b464736f6c63430008070033",
  "immutableReferences": {},
  "source": "// SPDX-License-Identifier: GPL-3.0\r\n\r\npragma solidity 0.8.7;\r\n\r\nimport \"../Interfaces/IAdminPiggyBank.sol\";\r\nimport \"../Interfaces/IPayments.sol\";\r\nimport \"@openzeppelin/contracts-upgradeable/proxy/utils/Initializable.sol\";\r\nimport \"@openzeppelin/contracts/token/ERC20/IERC20.sol\";\r\nimport \"../Libraries/ItemsLibrary.sol\";\r\nimport \"../Base/MultiSigContract.sol\";\r\nimport \"../Base/CreditorBaseContract.sol\";\r\n\r\ncontract AdminPiggyBank is Initializable, MultiSigContract, CreditorBaseContract, IAdminPiggyBank {\r\n    using ItemsLibrary for *;\r\n\r\n    // EVENTS /////////////////////////////////////////\r\n    event _Pay(address indexed payer, uint amount, uint paymentTokenID);\r\n    event _TransferCreated(address indexed to, uint amount, uint paymentTokenID);\r\n    event _VoteForTransfer(address indexed to, uint amount, uint paymentTokenID, address indexed voter, bool vote);\r\n    event _TransferValidated(address indexed to, uint amount, uint paymentTokenID);\r\n    event _TransferRejected(address indexed to, uint amount, uint paymentTokenID);\r\n\r\n    // DATA /////////////////////////////////////////\r\n    _TransferStruct _transferInProgress;\r\n\r\n    // MODIFIERS /////////////////////////////////////////\r\n    modifier isReceiverOK(address addr)\r\n    {\r\n        require(address(0) != addr, \"We cannot transfer to address 0\");\r\n        _;\r\n    }\r\n\r\n    modifier isAmountOK(uint256 amount, uint256 paymentTokenID)\r\n    {\r\n        IPayments payments = IPayments(_managerContract.retrieveTransparentProxies()[uint256(Library.TransparentProxies.Payments)]);\r\n        require(paymentTokenID < payments.retrieveSettings().length, \"This token Id does not exist yet in the system\");\r\n        require(IPayments(_managerContract.retrieveTransparentProxies()[uint256(Library.TransparentProxies.Payments)]).BalanceOf(address(this), paymentTokenID) >= amount, \"We cannot transfer more than the current balance\");\r\n        _;\r\n    }\r\n\r\n    modifier transferInProgress(bool YesOrNo)\r\n    {\r\n        transferInProgressFunc(YesOrNo);\r\n        _;\r\n    }\r\n\r\n    function transferInProgressFunc(bool YesOrNo) internal view\r\n    {\r\n        if(YesOrNo) require(address(0) != _transferInProgress._to, \"Transfer not in progress\");\r\n        else require(address(0) == _transferInProgress._to, \"Transfer in progress\");\r\n    }\r\n\r\n    // CONSTRUCTOR /////////////////////////////////////////\r\n    function AdminPiggyBank_init(address[] memory owners, uint256 minOwners, address managerContractAddress) public initializer {\r\n      super.MultiSigContract_init(owners, minOwners);\r\n      super.CreditorBaseContract_init(managerContractAddress); \r\n    }\r\n\r\n\r\n    // FUNCTIONALITY /////////////////////////////////////////\r\n    function onCreditReceived(address sender, uint256 amount, uint256 paymentTokenID, bytes memory data) internal override\r\n    {\r\n        emit _Pay(sender, amount, paymentTokenID);\r\n    }\r\n\r\n    function transfer(address receiver, uint256 amount, uint256 paymentTokenID) external override\r\n        isReceiverOK(receiver)\r\n        isAmountOK(amount, paymentTokenID)\r\n        transferInProgress(false)\r\n    {\r\n        _transferInProgress._to = receiver;\r\n        _transferInProgress._amount = amount;\r\n        _transferInProgress._paymentTokenID = paymentTokenID;\r\n\r\n        emit _TransferCreated(receiver, amount, paymentTokenID);\r\n\r\n        VoteForTransfer(true);\r\n    }\r\n\r\n    function approve() external override\r\n    {\r\n        VoteForTransfer(true);\r\n    } \r\n\r\n    function reject() external override\r\n    {\r\n        VoteForTransfer(false);\r\n    }\r\n\r\n    function VoteForTransfer(bool vote) internal\r\n        isAnOwner(msg.sender, true)\r\n        transferInProgress(true)\r\n        HasNotAlreadyVoted(msg.sender, _transferInProgress._voters)\r\n    {\r\n\r\n        emit _VoteForTransfer(_transferInProgress._to, _transferInProgress._amount, _transferInProgress._paymentTokenID, msg.sender, vote);\r\n\r\n        _transferInProgress._voters.push(msg.sender);\r\n        \r\n        if(vote){\r\n            _transferInProgress._validations++;\r\n\r\n            if(_transferInProgress._validations >= _minOwners){\r\n                ItemsLibrary.TransferTo(\r\n                    _transferInProgress._amount, \r\n                    _transferInProgress._to, \r\n                    address(IPayments(_managerContract.retrieveTransparentProxies()[uint256(Library.TransparentProxies.Payments)]).retrieveSettings()[_transferInProgress._paymentTokenID].TokenContract),\r\n                    false,\r\n                    bytes(\"\"),\r\n                    _transferInProgress._paymentTokenID\r\n                );\r\n                emit _TransferValidated(_transferInProgress._to, _transferInProgress._amount, _transferInProgress._paymentTokenID);\r\n                deletingPendingTransfer();\r\n            }\r\n        }\r\n        else{\r\n            _transferInProgress._rejections++;\r\n\r\n            if(_transferInProgress._rejections >= _minOwners){\r\n                emit _TransferRejected(_transferInProgress._to, _transferInProgress._amount, _transferInProgress._paymentTokenID);\r\n                deletingPendingTransfer();\r\n            }\r\n        }\r\n\r\n    } \r\n\r\n    function deletingPendingTransfer() internal\r\n    {\r\n        delete(_transferInProgress);\r\n    }\r\n\r\n    function retrieveTransferInfo() external override view returns(_TransferStruct memory)\r\n    {\r\n        return(_transferInProgress);\r\n    }\r\n}",
  "sourcePath": "C:\\Users\\d-aam\\GitHub\\Originals\\contracts\\MainContracts\\AdminPiggyBank.sol",
  "compiler": {
    "name": "solc",
    "version": "0.8.7+commit.e28d00a7.Emscripten.clang"
  },
  "schemaVersion": "3.4.3",
  "updatedAt": "2022-04-07T11:56:07.668Z",
  "devdoc": {
    "kind": "dev",
    "methods": {},
    "version": 1
  },
  "userdoc": {
    "kind": "user",
    "methods": {},
    "version": 1
  }
}