{
  "contractName": "MarketsCredits",
  "abi": [
    {
      "anonymous": false,
      "inputs": [
        {
          "indexed": true,
          "internalType": "uint256",
          "name": "NFTMarketId",
          "type": "uint256"
        },
        {
          "indexed": true,
          "internalType": "uint256",
          "name": "tokenID",
          "type": "uint256"
        },
        {
          "indexed": true,
          "internalType": "address",
          "name": "receiver",
          "type": "address"
        },
        {
          "indexed": false,
          "internalType": "uint256",
          "name": "amount",
          "type": "uint256"
        },
        {
          "indexed": false,
          "internalType": "uint256",
          "name": "factor",
          "type": "uint256"
        },
        {
          "indexed": false,
          "internalType": "uint256",
          "name": "paymentTokenID",
          "type": "uint256"
        }
      ],
      "name": "_CreditAssigned",
      "type": "event"
    },
    {
      "anonymous": false,
      "inputs": [
        {
          "indexed": true,
          "internalType": "address",
          "name": "receiver",
          "type": "address"
        },
        {
          "indexed": false,
          "internalType": "uint256",
          "name": "amount",
          "type": "uint256"
        },
        {
          "indexed": true,
          "internalType": "address",
          "name": "sender",
          "type": "address"
        },
        {
          "indexed": false,
          "internalType": "uint256",
          "name": "paymentTokenID",
          "type": "uint256"
        }
      ],
      "name": "_CreditReceived",
      "type": "event"
    },
    {
      "anonymous": false,
      "inputs": [
        {
          "indexed": true,
          "internalType": "uint256",
          "name": "NFTMarketId",
          "type": "uint256"
        },
        {
          "indexed": true,
          "internalType": "uint256",
          "name": "tokenID",
          "type": "uint256"
        },
        {
          "indexed": true,
          "internalType": "address",
          "name": "creditor",
          "type": "address"
        },
        {
          "indexed": false,
          "internalType": "uint256",
          "name": "amount",
          "type": "uint256"
        },
        {
          "indexed": false,
          "internalType": "uint256",
          "name": "paymentTokenID",
          "type": "uint256"
        }
      ],
      "name": "_CreditReused",
      "type": "event"
    },
    {
      "anonymous": false,
      "inputs": [
        {
          "indexed": true,
          "internalType": "uint256",
          "name": "NFTMarketId",
          "type": "uint256"
        },
        {
          "indexed": true,
          "internalType": "address",
          "name": "from",
          "type": "address"
        },
        {
          "indexed": false,
          "internalType": "uint256",
          "name": "amount",
          "type": "uint256"
        },
        {
          "indexed": true,
          "internalType": "address",
          "name": "to",
          "type": "address"
        },
        {
          "indexed": false,
          "internalType": "uint256",
          "name": "paymentTokenID",
          "type": "uint256"
        }
      ],
      "name": "_CreditSpent",
      "type": "event"
    },
    {
      "anonymous": false,
      "inputs": [
        {
          "indexed": true,
          "internalType": "uint256",
          "name": "NFTMarketId",
          "type": "uint256"
        },
        {
          "indexed": true,
          "internalType": "uint256",
          "name": "tokenID",
          "type": "uint256"
        },
        {
          "indexed": false,
          "internalType": "uint256",
          "name": "amount",
          "type": "uint256"
        },
        {
          "indexed": false,
          "internalType": "uint256",
          "name": "paymentTokenID",
          "type": "uint256"
        }
      ],
      "name": "_CreditUnAssignedReceived",
      "type": "event"
    },
    {
      "anonymous": false,
      "inputs": [
        {
          "indexed": true,
          "internalType": "address",
          "name": "withdrawer",
          "type": "address"
        },
        {
          "indexed": false,
          "internalType": "uint256",
          "name": "amount",
          "type": "uint256"
        },
        {
          "indexed": false,
          "internalType": "uint256",
          "name": "paymentTokenID",
          "type": "uint256"
        }
      ],
      "name": "_CreditWithdrawn",
      "type": "event"
    },
    {
      "anonymous": false,
      "inputs": [
        {
          "indexed": true,
          "internalType": "address",
          "name": "withdrawer",
          "type": "address"
        },
        {
          "indexed": false,
          "internalType": "uint256",
          "name": "amount",
          "type": "uint256"
        },
        {
          "indexed": true,
          "internalType": "address",
          "name": "sender",
          "type": "address"
        },
        {
          "indexed": false,
          "internalType": "uint256",
          "name": "paymentTokenID",
          "type": "uint256"
        }
      ],
      "name": "_CreditWithdrawnFor",
      "type": "event"
    },
    {
      "inputs": [
        {
          "internalType": "address",
          "name": "sender",
          "type": "address"
        },
        {
          "internalType": "uint256",
          "name": "amount",
          "type": "uint256"
        },
        {
          "internalType": "uint256",
          "name": "paymentTokenID",
          "type": "uint256"
        },
        {
          "internalType": "bytes",
          "name": "data",
          "type": "bytes"
        }
      ],
      "name": "CreditReceived",
      "outputs": [],
      "stateMutability": "nonpayable",
      "type": "function"
    },
    {
      "inputs": [],
      "name": "retrieveManagerContract",
      "outputs": [
        {
          "internalType": "address",
          "name": "",
          "type": "address"
        }
      ],
      "stateMutability": "view",
      "type": "function"
    },
    {
      "inputs": [
        {
          "internalType": "address",
          "name": "managerContractAddress",
          "type": "address"
        }
      ],
      "name": "MarketsCredits_init",
      "outputs": [],
      "stateMutability": "nonpayable",
      "type": "function"
    },
    {
      "inputs": [
        {
          "internalType": "address",
          "name": "addr",
          "type": "address"
        },
        {
          "internalType": "uint256",
          "name": "amount",
          "type": "uint256"
        },
        {
          "internalType": "uint256",
          "name": "paymentTokenID",
          "type": "uint256"
        }
      ],
      "name": "sendCredit",
      "outputs": [],
      "stateMutability": "nonpayable",
      "type": "function"
    },
    {
      "inputs": [
        {
          "internalType": "uint256",
          "name": "NFTMarketId",
          "type": "uint256"
        },
        {
          "internalType": "uint256",
          "name": "tokenID",
          "type": "uint256"
        },
        {
          "internalType": "address[]",
          "name": "addrs",
          "type": "address[]"
        },
        {
          "internalType": "uint256[]",
          "name": "amounts",
          "type": "uint256[]"
        },
        {
          "internalType": "uint256[]",
          "name": "factors",
          "type": "uint256[]"
        }
      ],
      "name": "assignCredit",
      "outputs": [],
      "stateMutability": "nonpayable",
      "type": "function"
    },
    {
      "inputs": [
        {
          "internalType": "uint256",
          "name": "NFTMarketId",
          "type": "uint256"
        },
        {
          "internalType": "uint256",
          "name": "tokenID",
          "type": "uint256"
        },
        {
          "internalType": "address",
          "name": "addr",
          "type": "address"
        },
        {
          "internalType": "uint256",
          "name": "amount",
          "type": "uint256"
        },
        {
          "internalType": "uint256",
          "name": "paymentTokenID",
          "type": "uint256"
        }
      ],
      "name": "reuseCredit",
      "outputs": [],
      "stateMutability": "nonpayable",
      "type": "function"
    },
    {
      "inputs": [
        {
          "internalType": "uint256",
          "name": "NFTMarketId",
          "type": "uint256"
        },
        {
          "internalType": "address",
          "name": "from",
          "type": "address"
        },
        {
          "internalType": "uint256",
          "name": "amount",
          "type": "uint256"
        },
        {
          "internalType": "address",
          "name": "to",
          "type": "address"
        },
        {
          "internalType": "uint256",
          "name": "paymentTokenID",
          "type": "uint256"
        }
      ],
      "name": "spendCredit",
      "outputs": [],
      "stateMutability": "nonpayable",
      "type": "function"
    },
    {
      "inputs": [
        {
          "internalType": "uint256",
          "name": "amount",
          "type": "uint256"
        },
        {
          "internalType": "uint256",
          "name": "paymentTokenID",
          "type": "uint256"
        }
      ],
      "name": "withdraw",
      "outputs": [],
      "stateMutability": "nonpayable",
      "type": "function"
    },
    {
      "inputs": [
        {
          "internalType": "uint256",
          "name": "paymentTokenID",
          "type": "uint256"
        }
      ],
      "name": "withdrawAll",
      "outputs": [],
      "stateMutability": "nonpayable",
      "type": "function"
    },
    {
      "inputs": [
        {
          "internalType": "uint256",
          "name": "NFTMarketId",
          "type": "uint256"
        },
        {
          "internalType": "address",
          "name": "addr",
          "type": "address"
        },
        {
          "internalType": "uint256",
          "name": "paymentTokenID",
          "type": "uint256"
        },
        {
          "internalType": "bytes",
          "name": "data",
          "type": "bytes"
        }
      ],
      "name": "withdrawAllFor",
      "outputs": [],
      "stateMutability": "nonpayable",
      "type": "function"
    },
    {
      "inputs": [
        {
          "internalType": "address",
          "name": "addr",
          "type": "address"
        },
        {
          "internalType": "uint256",
          "name": "paymentTokenID",
          "type": "uint256"
        }
      ],
      "name": "retrieveCredit",
      "outputs": [
        {
          "internalType": "uint256",
          "name": "",
          "type": "uint256"
        }
      ],
      "stateMutability": "view",
      "type": "function"
    },
    {
      "inputs": [
        {
          "internalType": "uint256",
          "name": "NFTMarketId",
          "type": "uint256"
        },
        {
          "internalType": "uint256",
          "name": "tokenID",
          "type": "uint256"
        }
      ],
      "name": "retrieveUnAssignedCredit",
      "outputs": [
        {
          "components": [
            {
              "internalType": "uint256",
              "name": "_credit",
              "type": "uint256"
            },
            {
              "internalType": "uint256",
              "name": "_paymentTokenID",
              "type": "uint256"
            },
            {
              "internalType": "bool",
              "name": "_inProgress",
              "type": "bool"
            }
          ],
          "internalType": "struct IMarketsCredits._unassignedCreditStruct",
          "name": "",
          "type": "tuple"
        }
      ],
      "stateMutability": "view",
      "type": "function"
    }
  ],
  "bytecode": "0x608060405234801561001057600080fd5b506126df806100206000396000f3fe608060405234801561001057600080fd5b50600436106100a45760003560e01c806304226b88146100a9578063195cb608146100be578063441a3e70146100fa57806352f615df1461010d57806357ffa71b1461012e5780635b362e84146101415780638266251f14610160578063958e2d311461017357806395bf0f3b14610186578063a37b58d514610199578063a67a1e37146101ac578063bc617e89146101bf575b600080fd5b6100bc6100b73660046120d8565b6101d2565b005b6100d16100cc366004612174565b610266565b604080518251815260208084015190820152918101511515908201526060015b60405180910390f35b6100bc610108366004612174565b6102ce565b61012061011b366004611d7e565b610332565b6040519081526020016100f1565b6100bc61013c3660046121df565b6103df565b6000546201000090046001600160a01b03166040516100f191906122b7565b6100bc61016e366004611ddf565b6104ed565b6100bc6101813660046120bf565b6106da565b6100bc610194366004611daa565b6107cf565b6100bc6101a736600461212a565b610ae0565b6100bc6101ba366004612196565b610c0c565b6100bc6101cd366004611d44565b610d2c565b8060016101df8282610da8565b86336101ed82826001611012565b61020d86888a6001604051806020016040528060008152508a6001611230565b856001600160a01b0316886001600160a01b03168a7f8e46218308a26b6095e80237a5b26d04fcd218ac6e8e4b197cfe3b57305dc6fb8a896040516102539291906124c9565b60405180910390a4505050505050505050565b61028c604051806060016040528060008152602001600081526020016000151581525090565b50600091825260026020818152604080852093855292815292829020825160608101845281548152600182015494810194909452015460ff1615159082015290565b8060006102db8282610da8565b6102fb338533600060405180602001604052806000815250886001611230565b336001600160a01b031660008051602061268a83398151915285856040516103249291906124c9565b60405180910390a250505050565b60008181526001602090815260408083206001600160a01b038616845290915280822090516326162dc360e01b8152600481019190915273__ItemsLibrary__________________________906326162dc39060240160206040518083038186803b1580156103a057600080fd5b505af41580156103b4573d6000803e3d6000fd5b505050506040513d601f19601f820116820180604052508101906103d89190612030565b9392505050565b60008881526002602090815260408083208a845282529182902054825186830281810184019094528681529092909187918791829190850190849080828437600092019190915250506040805160208088028281018201909352878252909350879250869182918501908490808284376000920191909152506104699250859150849050836113f9565b8a3361047782826000611012565b89861461049f5760405162461bcd60e51b815260040161049690612408565b60405180910390fd5b6104af8d8d8d8d8d8d8d8d61158f565b5050506000998a525050600260208181526040808b20998b5298905296882088815560018101989098555050505092909101805460ff191690555050565b33600060029054906101000a90046001600160a01b03166001600160a01b031663e220ad956040518163ffffffff1660e01b815260040160006040518083038186803b15801561053c57600080fd5b505afa158015610550573d6000803e3d6000fd5b505050506040513d6000823e601f3d908101601f191682016040526105789190810190611e41565b60068151811061058a5761058a612645565b60200260200101516001600160a01b0316816001600160a01b031614806106655750600060029054906101000a90046001600160a01b03166001600160a01b031663e220ad956040518163ffffffff1660e01b815260040160006040518083038186803b1580156105fa57600080fd5b505afa15801561060e573d6000803e3d6000fd5b505050506040513d6000823e601f3d908101601f191682016040526106369190810190611e41565b60078151811061064857610648612645565b60200260200101516001600160a01b0316816001600160a01b0316145b6106c75760405162461bcd60e51b815260206004820152602d60248201527f4974206973206e6f742066726f6d206f6e65206f66207468652063657274696660448201526c69656420636f6e74726163747360981b6064820152608401610496565b6106d385858585611778565b5050505050565b8060006106e78282610da8565b600083815260016020908152604080832033845290915280822090516326162dc360e01b8152600481019190915273__ItemsLibrary__________________________906326162dc39060240160206040518083038186803b15801561074c57600080fd5b505af4158015610760573d6000803e3d6000fd5b505050506040513d601f19601f820116820180604052508101906107849190612030565b90506107a6338233600060405180602001604052806000815250896001611230565b336001600160a01b031660008051602061268a83398151915282866040516103249291906124c9565b60408051600380825260808201909252600091602082016060803683375050604051631635719760e31b81526000600482015291925073__UintLibrary___________________________9163b1ab8cb8915060240160206040518083038186803b15801561083d57600080fd5b505af4158015610851573d6000803e3d6000fd5b505050506040513d601f19601f820116820180604052508101906108759190612030565b8160008151811061088857610888612645565b602090810291909101015260405163bc215e8560e01b815273__AddressLibrary________________________9063bc215e85906108ca9087906004016122b7565b60206040518083038186803b1580156108e257600080fd5b505af41580156108f6573d6000803e3d6000fd5b505050506040513d601f19601f8201168201806040525081019061091a9190612030565b8160018151811061092d5761092d612645565b6020908102919091010152604051632431a7cf60e01b815260009073__Library_______________________________90632431a7cf90610972908590600401612318565b60006040518083038186803b15801561098a57600080fd5b505af415801561099e573d6000803e3d6000fd5b505050506040513d6000823e601f3d908101601f191682016040526109c69190810190612049565b905060008060029054906101000a90046001600160a01b03166001600160a01b031663e220ad956040518163ffffffff1660e01b815260040160006040518083038186803b158015610a1757600080fd5b505afa158015610a2b573d6000803e3d6000fd5b505050506040513d6000823e601f3d908101601f19168201604052610a539190810190611e41565b600681518110610a6557610a65612645565b60200260200101519050806001600160a01b0316632c2ec2683330886000878a6040518763ffffffff1660e01b8152600401610aa6969594939291906122cb565b600060405180830381600087803b158015610ac057600080fd5b505af1158015610ad4573d6000803e3d6000fd5b50505050505050505050565b816000610aed8282610da8565b8533610afb82826000611012565b60008681526001602090815260408083206001600160a01b038b16845290915280822090516326162dc360e01b8152600481019190915273__ItemsLibrary__________________________906326162dc39060240160206040518083038186803b158015610b6957600080fd5b505af4158015610b7d573d6000803e3d6000fd5b505050506040513d601f19601f82011682018060405250810190610ba19190612030565b9050610bb488828a60018a8c6001611230565b336001600160a01b0316886001600160a01b03167f66f38d03b2ef5d35bd0055daacdada5779c32d8f8379404be96ebb5d044e0954838a604051610bf99291906124c9565b60405180910390a3505050505050505050565b600085815260026020818152604080842088855290915290912001548590859060ff1615610c925760405162461bcd60e51b815260206004820152602d60248201527f556e61737369676e65642063726564697420666f72207468697320746f6b656e60448201526c206973206e6f7420656d70747960981b6064820152608401610496565b826001610c9f8282610da8565b8833610cad82826000611012565b610cce6000898b6000604051806020016040528060008152508c6000611230565b610cda8b8b8a8a611b79565b886001600160a01b03168a8c7f65003d30d3f109914e8927ab1b578875696ebb2ed8d9aadf25781a202393495d8b8b604051610d179291906124c9565b60405180910390a45050505050505050505050565b600054610100900460ff16610d475760005460ff1615610d4b565b303b155b610d675760405162461bcd60e51b81526004016104969061236f565b600054610100900460ff16158015610d89576000805461ffff19166101011790555b610d9282611bae565b8015610da4576000805461ff00191690555b5050565b60008060029054906101000a90046001600160a01b03166001600160a01b031663e220ad956040518163ffffffff1660e01b815260040160006040518083038186803b158015610df757600080fd5b505afa158015610e0b573d6000803e3d6000fd5b505050506040513d6000823e601f3d908101601f19168201604052610e339190810190611e41565b600681518110610e4557610e45612645565b602002602001015190506000816001600160a01b031663b049473f6040518163ffffffff1660e01b815260040160006040518083038186803b158015610e8a57600080fd5b505afa158015610e9e573d6000803e3d6000fd5b505050506040513d6000823e601f3d908101601f19168201604052610ec69190810190611f6c565b905080518410610f185760405162461bcd60e51b815260206004820152601f60248201527f54686973207061796d656e7420746f6b656e206973206e6f742076616c6964006044820152606401610496565b808481518110610f2a57610f2a612645565b6020908102919091010151516001600160a01b0316610f8b5760405162461bcd60e51b815260206004820181905260248201527f54686973207061796d656e7420746f6b656e20686173206164647265737320306044820152606401610496565b821561100c57808481518110610fa357610fa3612645565b6020026020010151602001511515600115151461100c5760405162461bcd60e51b815260206004820152602160248201527f54686973207061796d656e7420746f6b656e206973206e6f7420656e61626c656044820152601960fa1b6064820152608401610496565b50505050565b60008060029054906101000a90046001600160a01b03166001600160a01b031663e220ad956040518163ffffffff1660e01b815260040160006040518083038186803b15801561106157600080fd5b505afa158015611075573d6000803e3d6000fd5b505050506040513d6000823e601f3d908101601f1916820160405261109d9190810190611e41565b6001815181106110af576110af612645565b602002602001015190508115611188576040516303231e5d60e01b8152600481018590526001600160a01b038216906303231e5d9060240160206040518083038186803b1580156110ff57600080fd5b505afa158015611113573d6000803e3d6000fd5b505050506040513d601f19601f820116820180604052508101906111379190611d61565b6001600160a01b0316836001600160a01b031614806111675750806001600160a01b0316836001600160a01b0316145b6111835760405162461bcd60e51b8152600401610496906123bd565b61100c565b6040516303231e5d60e01b8152600481018590526001600160a01b038216906303231e5d9060240160206040518083038186803b1580156111c857600080fd5b505afa1580156111dc573d6000803e3d6000fd5b505050506040513d601f19601f820116820180604052508101906112009190611d61565b6001600160a01b0316836001600160a01b03161461100c5760405162461bcd60e51b8152600401610496906123bd565b60008281526001602090815260408083206001600160a01b03808a16855292528083208354825163e220ad9560e01b8152925173__ItemsLibrary__________________________956318b84a219593948d948f948a94620100009091049091169263e220ad959260048082019391829003018186803b1580156112b357600080fd5b505afa1580156112c7573d6000803e3d6000fd5b505050506040513d6000823e601f3d908101601f191682016040526112ef9190810190611e41565b60068151811061130157611301612645565b60200260200101516001600160a01b031663b049473f6040518163ffffffff1660e01b815260040160006040518083038186803b15801561134157600080fd5b505afa158015611355573d6000803e3d6000fd5b505050506040513d6000823e601f3d908101601f1916820160405261137d9190810190611f6c565b888151811061138e5761138e612645565b6020026020010151600001518a8a8a6040518963ffffffff1660e01b81526004016113c0989796959493929190612453565b60006040518083038186803b1580156113d857600080fd5b505af41580156113ec573d6000803e3d6000fd5b5050505050505050505050565b805182511461141a5760405162461bcd60e51b815260040161049690612408565b604051633c952fb360e21b815260009073__UintLibrary___________________________9063f254becc90611454908590600401612318565b60206040518083038186803b15801561146c57600080fd5b505af4158015611480573d6000803e3d6000fd5b505050506040513d601f19601f820116820180604052508101906114a49190612030565b90506000805b835181101561151a578381815181106114c5576114c5612645565b6020026020010151838683815181106114e0576114e0612645565b60200260200101516114f291906125b3565b6114fc9190612591565b6115069083612579565b915080611512816125fe565b9150506114aa565b508061152683876125b3565b146106d35760405162461bcd60e51b815260206004820152603360248201527f74686520746f74616c20616d6f756e74206973206e6f7420657175616c20746f604482015272207468652063616c63756c61746564206f6e6560681b6064820152608401610496565b60008881526002602090815260408083208a8452909152812060010154905b86811015610ad45760008686838181106115ca576115ca612645565b90506020020135111561176657600082815260016020526040812073__ItemsLibrary__________________________91633833532791908b8b8681811061161457611614612645565b90506020020160208101906116299190611d44565b6001600160a01b03166001600160a01b0316815260200190815260200160002088888581811061165b5761165b612645565b9050602002013587878681811061167457611674612645565b905060200201356040518463ffffffff1660e01b8152600401611699939291906124b3565b60006040518083038186803b1580156116b157600080fd5b505af41580156116c5573d6000803e3d6000fd5b505050508787828181106116db576116db612645565b90506020020160208101906116f09190611d44565b6001600160a01b0316898b7e85dd5c7e25f320179845bd109bec815645a273f03d337f3a46ea43da6ca0c089898681811061172d5761172d612645565b9050602002013588888781811061174657611746612645565b905060200201358760405161175d939291906124b3565b60405180910390a45b80611770816125fe565b9150506115ae565b60405163caa8f58960e01b815260009073__Library_______________________________9063caa8f589906117b290859060040161235c565b60006040518083038186803b1580156117ca57600080fd5b505af41580156117de573d6000803e3d6000fd5b505050506040513d6000823e601f3d908101601f191682016040526118069190810190611ee1565b905060008160008151811061181d5761181d612645565b602002602001015160001c60018111156118395761183961262f565b905080600181111561184d5761184d61262f565b6119d957600073__AddressLibrary________________________63f4ce9ae88460018151811061188057611880612645565b60200260200101516040518263ffffffff1660e01b81526004016118a691815260200190565b60206040518083038186803b1580156118be57600080fd5b505af41580156118d2573d6000803e3d6000fd5b505050506040513d601f19601f820116820180604052508101906118f69190611d61565b60008681526001602081815260408084206001600160a01b0386168552909152918290209151633833532760e01b815292935073__ItemsLibrary__________________________926338335327926119569290918b91906004016124b3565b60006040518083038186803b15801561196e57600080fd5b505af4158015611982573d6000803e3d6000fd5b50505050866001600160a01b0316816001600160a01b03167fac995865659dcf606a8b72619cec439c948be22b1fadce49ed394e003bb594b188886040516119cb9291906124c9565b60405180910390a350611b71565b600073__UintLibrary___________________________630bd4715e84600181518110611a0857611a08612645565b60200260200101516040518263ffffffff1660e01b8152600401611a2e91815260200190565b60206040518083038186803b158015611a4657600080fd5b505af4158015611a5a573d6000803e3d6000fd5b505050506040513d601f19601f82011682018060405250810190611a7e9190612030565b9050600073__UintLibrary___________________________630bd4715e85600281518110611aaf57611aaf612645565b60200260200101516040518263ffffffff1660e01b8152600401611ad591815260200190565b60206040518083038186803b158015611aed57600080fd5b505af4158015611b01573d6000803e3d6000fd5b505050506040513d601f19601f82011682018060405250810190611b259190612030565b9050611b3382828989611b79565b80827ff9e629b7f363892b1e150085e7eb5a4b2335f91eb27586b3b563759c250b6d4c8989604051611b669291906124c9565b60405180910390a350505b505050505050565b60009384526002602081815260408087209587529490529290932090815560018082019390935501805460ff19169091179055565b600054610100900460ff16611bc95760005460ff1615611bcd565b303b155b611be95760405162461bcd60e51b81526004016104969061236f565b600054610100900460ff16158015611c0b576000805461ffff19166101011790555b610d9282600054610100900460ff16611c2a5760005460ff1615611c2e565b303b155b611c4a5760405162461bcd60e51b81526004016104969061236f565b600054610100900460ff16158015611c6c576000805461ffff19166101011790555b6000805462010000600160b01b031916620100006001600160a01b038516021790558015610da4576000805461ff00191690555050565b60008083601f840112611cb557600080fd5b5081356001600160401b03811115611ccc57600080fd5b6020830191508360208260051b8501011115611ce757600080fd5b9250929050565b600082601f830112611cff57600080fd5b8135611d12611d0d82612552565b6124ff565b818152846020838601011115611d2757600080fd5b816020850160208301376000918101602001919091529392505050565b600060208284031215611d5657600080fd5b81356103d881612671565b600060208284031215611d7357600080fd5b81516103d881612671565b60008060408385031215611d9157600080fd5b8235611d9c81612671565b946020939093013593505050565b600080600060608486031215611dbf57600080fd5b8335611dca81612671565b95602085013595506040909401359392505050565b60008060008060808587031215611df557600080fd5b8435611e0081612671565b9350602085013592506040850135915060608501356001600160401b03811115611e2957600080fd5b611e3587828801611cee565b91505092959194509250565b60006020808385031215611e5457600080fd5b82516001600160401b03811115611e6a57600080fd5b8301601f81018513611e7b57600080fd5b8051611e89611d0d8261252f565b80828252848201915084840188868560051b8701011115611ea957600080fd5b600094505b83851015611ed5578051611ec181612671565b835260019490940193918501918501611eae565b50979650505050505050565b60006020808385031215611ef457600080fd5b82516001600160401b03811115611f0a57600080fd5b8301601f81018513611f1b57600080fd5b8051611f29611d0d8261252f565b80828252848201915084840188868560051b8701011115611f4957600080fd5b600094505b83851015611ed5578051835260019490940193918501918501611f4e565b60006020808385031215611f7f57600080fd5b82516001600160401b03811115611f9557600080fd5b8301601f81018513611fa657600080fd5b8051611fb4611d0d8261252f565b80828252848201915084840188868560061b8701011115611fd457600080fd5b600094505b83851015611ed557604080828b031215611ff257600080fd5b611ffa6124d7565b825161200581612671565b815282880151801515811461201957600080fd5b818901528452600195909501949286019201611fd9565b60006020828403121561204257600080fd5b5051919050565b60006020828403121561205b57600080fd5b81516001600160401b0381111561207157600080fd5b8201601f8101841361208257600080fd5b8051612090611d0d82612552565b8181528560208385010111156120a557600080fd5b6120b68260208301602086016125d2565b95945050505050565b6000602082840312156120d157600080fd5b5035919050565b600080600080600060a086880312156120f057600080fd5b85359450602086013561210281612671565b935060408601359250606086013561211981612671565b949793965091946080013592915050565b6000806000806080858703121561214057600080fd5b84359350602085013561215281612671565b92506040850135915060608501356001600160401b03811115611e2957600080fd5b6000806040838503121561218757600080fd5b50508035926020909101359150565b600080600080600060a086880312156121ae57600080fd5b853594506020860135935060408601356121c781612671565b94979396509394606081013594506080013592915050565b60008060008060008060008060a0898b0312156121fb57600080fd5b883597506020890135965060408901356001600160401b038082111561222057600080fd5b61222c8c838d01611ca3565b909850965060608b013591508082111561224557600080fd5b6122518c838d01611ca3565b909650945060808b013591508082111561226a57600080fd5b506122778b828c01611ca3565b999c989b5096995094979396929594505050565b600081518084526122a38160208601602086016125d2565b601f01601f19169290920160200192915050565b6001600160a01b0391909116815260200190565b6001600160a01b03878116825286166020820152604081018590526060810184905260c0608082018190526000906123059083018561228b565b90508260a0830152979650505050505050565b6020808252825182820181905260009190848201906040850190845b8181101561235057835183529284019291840191600101612334565b50909695505050505050565b6020815260006103d8602083018461228b565b6020808252602e908201527f496e697469616c697a61626c653a20636f6e747261637420697320616c72656160408201526d191e481a5b9a5d1a585b1a5e995960921b606082015260800190565b6020808252602b908201527f546865204d61726b657420496420616e64204164647265737320646f206e6f7460408201526a0818dbdc9c995cdc1bdb9960aa1b606082015260800190565b6020808252602b908201527f50726f76696465642061727261797320646f206e6f742068617665207468652060408201526a0e6c2daca40d8cadccee8d60ab1b606082015260800190565b888152602081018890526001600160a01b03878116604083015286151560608301528516608082015283151560a082015261010060c0820181905260009061249d8382018661228b565b9150508260e08301529998505050505050505050565b9283526020830191909152604082015260600190565b918252602082015260400190565b604080519081016001600160401b03811182821017156124f9576124f961265b565b60405290565b604051601f8201601f191681016001600160401b03811182821017156125275761252761265b565b604052919050565b60006001600160401b038211156125485761254861265b565b5060051b60200190565b60006001600160401b0382111561256b5761256b61265b565b50601f01601f191660200190565b6000821982111561258c5761258c612619565b500190565b6000826125ae57634e487b7160e01b600052601260045260246000fd5b500490565b60008160001904831182151516156125cd576125cd612619565b500290565b60005b838110156125ed5781810151838201526020016125d5565b8381111561100c5750506000910152565b600060001982141561261257612612612619565b5060010190565b634e487b7160e01b600052601160045260246000fd5b634e487b7160e01b600052602160045260246000fd5b634e487b7160e01b600052603260045260246000fd5b634e487b7160e01b600052604160045260246000fd5b6001600160a01b038116811461268657600080fd5b5056fe35474681258bb96da53df6137ee08756497e570dab2b550ccc53c5784069ddf4a26469706673582212205ff3ad988372d87fc955daec26ab4be67d1be2c83125d8957cdb2362e7d8bb6664736f6c63430008070033",
  "immutableReferences": {},
  "source": "// SPDX-License-Identifier: GPL-3.0\r\n\r\npragma solidity 0.8.7;\r\n\r\n/**\r\n Certis Token is an ERC20 Token that grants its holder the right to:\r\n   - Vote on all the systems propositions (changing system configuraiton etc...)\r\n   - Receive Dividends for all the payments forwarded to the Treasury contract\r\n\r\nBefore every token transfer we contact the token gouvernance Base contracts so that the can update the tokens used for voting if needed\r\n\r\n */\r\n\r\nimport \"@openzeppelin/contracts-upgradeable/proxy/utils/Initializable.sol\";\r\nimport \"../Interfaces/IMarketsCredits.sol\";\r\nimport \"../Interfaces/IPool.sol\";\r\nimport \"../Libraries/ItemsLibrary.sol\";\r\nimport \"../Libraries/UintLibrary.sol\";\r\nimport \"../Libraries/Library.sol\";\r\nimport \"../Libraries/AddressLibrary.sol\";\r\nimport \"../Base/CreditorBaseContract.sol\";\r\nimport \"../Interfaces/IPayments.sol\";\r\n\r\n contract MarketsCredits is  IMarketsCredits, Initializable, CreditorBaseContract {\r\n  using ItemsLibrary for *;\r\n  using UintLibrary for *;\r\n  using Library for *;\r\n  using AddressLibrary for *;\r\n\r\n\r\n  // EVENTS /////////////////////////////////////////\r\n  event _CreditReceived(address indexed receiver, uint256 amount, address indexed sender, uint256 paymentTokenID);\r\n  event _CreditUnAssignedReceived(uint256 indexed NFTMarketId, uint256 indexed tokenID, uint256 amount, uint256 paymentTokenID);\r\n  event _CreditAssigned(uint256 indexed NFTMarketId, uint256 indexed tokenID, address indexed receiver, uint256 amount, uint256 factor, uint256 paymentTokenID);\r\n  event _CreditReused(uint256 indexed NFTMarketId, uint256 indexed tokenID, address indexed creditor, uint256 amount, uint256 paymentTokenID);\r\n  event _CreditSpent(uint256 indexed NFTMarketId, address indexed from, uint256 amount, address indexed to, uint256 paymentTokenID);\r\n  event _CreditWithdrawn(address indexed withdrawer, uint256 amount, uint256 paymentTokenID);\r\n  event _CreditWithdrawnFor(address indexed withdrawer, uint256 amount, address indexed sender, uint256 paymentTokenID);\r\n\r\n\r\n \r\n\r\n  mapping(uint256 => mapping(address => ItemsLibrary._BalanceStruct)) private _creditOfAccount;\r\n  mapping(uint256 => mapping(uint256 => _unassignedCreditStruct)) private _unassignedCreditForMarket;\r\n\r\n\r\n  // MODIFIERS /////////////////////////////////////////\r\n  modifier isNFTMarket(uint256 MarketId, address MarketAddress){\r\n      isNFTMarketorPublicFunc(MarketId, MarketAddress, false);\r\n      _;\r\n  }\r\n\r\n  modifier isNFTMarketorPublicPool(uint256 MarketId, address MarketAddress){\r\n      isNFTMarketorPublicFunc(MarketId, MarketAddress, true);\r\n      _;\r\n  }\r\n\r\n  function isNFTMarketorPublicFunc(uint256 MarketId, address Addr, bool PublicPool) internal view{\r\n    IPool publicPool = IPool(_managerContract.retrieveTransparentProxies()[uint256(Library.TransparentProxies.PublicPool)]);\r\n    if(PublicPool) require(Addr == publicPool.retrieveNFTMarketForIssuer(MarketId) ||\r\n                           Addr == address(publicPool) , \"The Market Id and Address do not correspond\");\r\n    else require(Addr == publicPool.retrieveNFTMarketForIssuer(MarketId), \"The Market Id and Address do not correspond\");\r\n  }\r\n\r\n  modifier isTokenUnassignedCreditEmpty(uint256 NFTMarketId, uint256 tokenID){\r\n    require(false == _unassignedCreditForMarket[NFTMarketId][tokenID]._inProgress, \"Unassigned credit for this token is not empty\");\r\n    _;\r\n  }\r\n\r\n  modifier checkTotal(uint256 total, uint256[] memory amounts, uint256[] memory factors){\r\n    checkTotalFunc(total, amounts, factors);\r\n    _;\r\n  }\r\n\r\n  function checkTotalFunc(uint256 total, uint256[] memory amounts, uint256[] memory factors) internal{\r\n    require(amounts.length == factors.length, \"Provided arrays do not have the same length\");\r\n    uint256 CommonDividend = UintLibrary.ProductOfFactors(factors);\r\n    uint256 calculatedTotal = 0;\r\n    for(uint256 i=0; i < factors.length; i++){\r\n        calculatedTotal += amounts[i] * CommonDividend / factors[i];\r\n    }\r\n    require((total * CommonDividend) == calculatedTotal, \"the total amount is not equal to the calculated one\");\r\n  }\r\n\r\n  modifier isPaymentTokenOK(uint256 paymentTokenID, bool checkActive){\r\n    isPaymentTokenOKFunc(paymentTokenID, checkActive);\r\n    _;\r\n  }\r\n\r\n  function isPaymentTokenOKFunc(uint256 paymentTokenID, bool checkActive) internal view{\r\n    IPayments payments = IPayments(_managerContract.retrieveTransparentProxies()[uint256(Library.TransparentProxies.Payments)]);\r\n    Library.PaymentTokenStruct[] memory paymentTokens = payments.retrieveSettings();\r\n    require(paymentTokenID < paymentTokens.length, \"This payment token is not valid\");\r\n    require(address(0) != address(paymentTokens[paymentTokenID].TokenContract), \"This payment token has address 0\");\r\n    if(checkActive) require(true == paymentTokens[paymentTokenID].active, \"This payment token is not enabled\");\r\n  }\r\n\r\n  // CONSTRUCTOR /////////////////////////////////////////\r\n  function MarketsCredits_init(address managerContractAddress) public initializer {\r\n      super.CreditorBaseContract_init(managerContractAddress); \r\n  }\r\n\r\n  // FUNCTIONALITY /////////////////////////////////////////\r\n  function onCreditReceived(address sender, uint256 amount, uint256 paymentTokenID, bytes memory data) internal override\r\n  {\r\n    bytes32[] memory receivedData = Library.BytestoBytes32(data);\r\n    Library.MarketsCreditsPaymentTypes paymentType = Library.MarketsCreditsPaymentTypes(uint256(receivedData[0]));\r\n\r\n    if(Library.MarketsCreditsPaymentTypes.SendCredit == paymentType){\r\n      address account = AddressLibrary.Bytes32ToAddress(receivedData[1]);\r\n      ItemsLibrary.addBalance(_creditOfAccount[paymentTokenID][account], amount, 1);\r\n      emit _CreditReceived(account, amount, sender, paymentTokenID);\r\n    }\r\n\r\n    else{\r\n      uint256 NFTMarketId = UintLibrary.Bytes32ToUint(receivedData[1]);\r\n      uint256 tokenID = UintLibrary.Bytes32ToUint(receivedData[2]);\r\n      internalTransferUnassignedCredit(NFTMarketId, tokenID, amount, paymentTokenID);\r\n      emit _CreditUnAssignedReceived(NFTMarketId, tokenID, amount, paymentTokenID);\r\n    }\r\n     \r\n  }\r\n  \r\n  function sendCredit(address addr, uint256 amount, uint256 paymentTokenID) external override\r\n  {\r\n    bytes32[] memory dataArray = new bytes32[](3);\r\n    dataArray[0] = UintLibrary.UintToBytes32(uint256(Library.MarketsCreditsPaymentTypes.SendCredit));\r\n    dataArray[1] = AddressLibrary.AddressToBytes32(addr);\r\n    bytes memory data = Library.Bytes32ArrayToBytes(dataArray);\r\n\r\n    IPayments payments = IPayments(_managerContract.retrieveTransparentProxies()[uint256(Library.TransparentProxies.Payments)]);\r\n    payments.TransferFrom(msg.sender, address(this), amount, 0, data, paymentTokenID);\r\n  }\r\n\r\n  function assignCredit(uint256 NFTMarketId, uint256 tokenID, address[] calldata addrs, uint256[] calldata amounts, uint256[] calldata factors) external override\r\n    checkTotal(_unassignedCreditForMarket[NFTMarketId][tokenID]._credit, amounts, factors)\r\n    isNFTMarket(NFTMarketId, msg.sender)\r\n  {\r\n    require(addrs.length == factors.length, \"Provided arrays do not have the same length\");\r\n    assignCreditInternal(NFTMarketId, tokenID, addrs, amounts, factors);\r\n    delete(_unassignedCreditForMarket[NFTMarketId][tokenID]);\r\n  }\r\n\r\n  function assignCreditInternal(uint256 NFTMarketId, uint256 tokenID, address[] calldata addrs, uint256[] calldata amounts, uint256[] calldata factors) internal \r\n  {\r\n    uint256 paymentTokenID = _unassignedCreditForMarket[NFTMarketId][tokenID]._paymentTokenID;\r\n    for(uint i=0; i < addrs.length; i++){\r\n      if(amounts[i] > 0){\r\n        ItemsLibrary.addBalance(_creditOfAccount[paymentTokenID][addrs[i]], amounts[i], factors[i]);\r\n        emit _CreditAssigned(NFTMarketId, tokenID, addrs[i], amounts[i], factors[i], paymentTokenID);\r\n      }\r\n    }\r\n  }\r\n\r\n  function reuseCredit(uint256 NFTMarketId, uint256 tokenID, address addr, uint256 amount, uint256 paymentTokenID) external override\r\n    isTokenUnassignedCreditEmpty(NFTMarketId, tokenID)\r\n    isPaymentTokenOK(paymentTokenID, true)\r\n    isNFTMarket(NFTMarketId, msg.sender)\r\n  {\r\n    internalWithdraw(address(0), amount, addr, false, bytes(\"\"), paymentTokenID, false);\r\n    internalTransferUnassignedCredit(NFTMarketId, tokenID, amount, paymentTokenID);\r\n    emit _CreditReused(NFTMarketId, tokenID, addr, amount, paymentTokenID);\r\n  }\r\n\r\n  function spendCredit(uint256 NFTMarketId, address from, uint256 amount, address to, uint256 paymentTokenID) external override\r\n    isPaymentTokenOK(paymentTokenID, true)\r\n    isNFTMarketorPublicPool(NFTMarketId, msg.sender)\r\n  {\r\n    internalWithdraw(to, amount, from, true, bytes(\"\"), paymentTokenID, true);\r\n    emit _CreditSpent(NFTMarketId, from, amount, to, paymentTokenID);\r\n  }\r\n\r\n  function withdraw(uint amount, uint256 paymentTokenID) external override\r\n    isPaymentTokenOK(paymentTokenID, false)\r\n  {\r\n    internalWithdraw(msg.sender, amount, msg.sender, false, bytes(\"\"), paymentTokenID, true);\r\n    emit _CreditWithdrawn(msg.sender, amount, paymentTokenID);\r\n  }\r\n  \r\n  function withdrawAll(uint256 paymentTokenID) external override\r\n    isPaymentTokenOK(paymentTokenID, false)\r\n  {\r\n    uint amount = ItemsLibrary.checkFullBalance(_creditOfAccount[paymentTokenID][msg.sender]);\r\n    internalWithdraw(msg.sender, amount, msg.sender, false, bytes(\"\"), paymentTokenID, true);\r\n    emit _CreditWithdrawn(msg.sender, amount, paymentTokenID);\r\n  }\r\n  \r\n  function withdrawAllFor(uint256 NFTMarketId, address addr, uint256 paymentTokenID, bytes memory data) external override\r\n    isPaymentTokenOK(paymentTokenID, false)\r\n    isNFTMarket(NFTMarketId, msg.sender)\r\n  {\r\n    uint amount = ItemsLibrary.checkFullBalance(_creditOfAccount[paymentTokenID][addr]);\r\n    internalWithdraw(addr, amount, addr, true, data, paymentTokenID, true);\r\n    emit _CreditWithdrawnFor(addr, amount, msg.sender, paymentTokenID);\r\n  }\r\n\r\n  function internalTransferUnassignedCredit(uint256 NFTMarketId, uint256 tokenID, uint256 amount, uint256 paymentTokenID) internal\r\n  {\r\n      _unassignedCreditForMarket[NFTMarketId][tokenID]._credit = amount;\r\n      _unassignedCreditForMarket[NFTMarketId][tokenID]._paymentTokenID = paymentTokenID;\r\n      _unassignedCreditForMarket[NFTMarketId][tokenID]._inProgress = true;\r\n  }\r\n\r\n  function internalWithdraw(address to, uint amount, address sender, bool sendData, bytes memory data, uint256 paymentTokenID, bool transfer) internal\r\n  {\r\n      ItemsLibrary.InternalWithdraw(\r\n        _creditOfAccount[paymentTokenID][sender], \r\n        amount, \r\n        to, \r\n        transfer, \r\n        address(IPayments(_managerContract.retrieveTransparentProxies()[uint256(Library.TransparentProxies.Payments)]).retrieveSettings()[paymentTokenID].TokenContract),\r\n        sendData,\r\n        data,\r\n        paymentTokenID\r\n      );\r\n  }\r\n\r\n  function retrieveCredit(address addr, uint256 paymentTokenID) external override view returns (uint256)\r\n  {\r\n    return ItemsLibrary.checkFullBalance(_creditOfAccount[paymentTokenID][addr]);\r\n  }\r\n\r\n  function retrieveUnAssignedCredit(uint256 NFTMarketId, uint256 tokenID) external override view returns (_unassignedCreditStruct memory){\r\n    return(_unassignedCreditForMarket[NFTMarketId][tokenID]);\r\n  }\r\n\r\n\r\n }",
  "sourcePath": "C:\\Users\\d-aam\\GitHub\\Originals\\contracts\\MainContracts\\MarketsCredits.sol",
  "compiler": {
    "name": "solc",
    "version": "0.8.7+commit.e28d00a7.Emscripten.clang"
  },
  "schemaVersion": "3.4.3",
  "updatedAt": "2022-04-07T11:56:07.701Z",
  "devdoc": {
    "kind": "dev",
    "methods": {},
    "version": 1
  },
  "userdoc": {
    "kind": "user",
    "methods": {},
    "version": 1
  }
}