{
  "contractName": "Payments",
  "abi": [
    {
      "anonymous": false,
      "inputs": [
        {
          "indexed": false,
          "internalType": "uint256",
          "name": "Id",
          "type": "uint256"
        },
        {
          "indexed": true,
          "internalType": "address",
          "name": "Proposer",
          "type": "address"
        },
        {
          "indexed": false,
          "internalType": "uint256",
          "name": "Deadline",
          "type": "uint256"
        },
        {
          "indexed": false,
          "internalType": "uint256",
          "name": "Threshold",
          "type": "uint256"
        }
      ],
      "name": "_AddedProposition",
      "type": "event"
    },
    {
      "anonymous": false,
      "inputs": [
        {
          "indexed": false,
          "internalType": "uint256",
          "name": "Id",
          "type": "uint256"
        },
        {
          "indexed": true,
          "internalType": "address",
          "name": "Proposer",
          "type": "address"
        }
      ],
      "name": "_CancelledProposition",
      "type": "event"
    },
    {
      "anonymous": false,
      "inputs": [
        {
          "indexed": false,
          "internalType": "uint256[]",
          "name": "index",
          "type": "uint256[]"
        },
        {
          "indexed": false,
          "internalType": "address[]",
          "name": "TokenAddresses",
          "type": "address[]"
        }
      ],
      "name": "_NewAddresses",
      "type": "event"
    },
    {
      "anonymous": false,
      "inputs": [
        {
          "indexed": false,
          "internalType": "uint256",
          "name": "Id",
          "type": "uint256"
        },
        {
          "indexed": true,
          "internalType": "address",
          "name": "Proposer",
          "type": "address"
        },
        {
          "indexed": false,
          "internalType": "uint256",
          "name": "VotesFor",
          "type": "uint256"
        },
        {
          "indexed": false,
          "internalType": "uint256",
          "name": "VotesAgainst",
          "type": "uint256"
        }
      ],
      "name": "_PropositionApproved",
      "type": "event"
    },
    {
      "anonymous": false,
      "inputs": [
        {
          "indexed": false,
          "internalType": "uint256",
          "name": "Id",
          "type": "uint256"
        },
        {
          "indexed": true,
          "internalType": "address",
          "name": "Proposer",
          "type": "address"
        },
        {
          "indexed": false,
          "internalType": "uint256",
          "name": "VotesFor",
          "type": "uint256"
        },
        {
          "indexed": false,
          "internalType": "uint256",
          "name": "VotesAgainst",
          "type": "uint256"
        }
      ],
      "name": "_PropositionRejected",
      "type": "event"
    },
    {
      "anonymous": false,
      "inputs": [
        {
          "indexed": false,
          "internalType": "uint256",
          "name": "Id",
          "type": "uint256"
        },
        {
          "indexed": true,
          "internalType": "address",
          "name": "Voter",
          "type": "address"
        },
        {
          "indexed": false,
          "internalType": "bool",
          "name": "Vote",
          "type": "bool"
        },
        {
          "indexed": false,
          "internalType": "uint256",
          "name": "AmountTokens",
          "type": "uint256"
        }
      ],
      "name": "_PropositionVote",
      "type": "event"
    },
    {
      "anonymous": false,
      "inputs": [
        {
          "indexed": true,
          "internalType": "uint256",
          "name": "Id",
          "type": "uint256"
        },
        {
          "indexed": false,
          "internalType": "address",
          "name": "From",
          "type": "address"
        },
        {
          "indexed": false,
          "internalType": "address",
          "name": "To",
          "type": "address"
        },
        {
          "indexed": false,
          "internalType": "uint256",
          "name": "Amount",
          "type": "uint256"
        }
      ],
      "name": "_UsedTokensTransfered",
      "type": "event"
    },
    {
      "inputs": [
        {
          "internalType": "address",
          "name": "chairPerson",
          "type": "address"
        },
        {
          "internalType": "address",
          "name": "managerContractAddress",
          "type": "address"
        }
      ],
      "name": "StdPropositionBaseContract_init",
      "outputs": [],
      "stateMutability": "nonpayable",
      "type": "function"
    },
    {
      "inputs": [],
      "name": "cancelProposition",
      "outputs": [],
      "stateMutability": "nonpayable",
      "type": "function"
    },
    {
      "inputs": [
        {
          "internalType": "address",
          "name": "from",
          "type": "address"
        },
        {
          "internalType": "address",
          "name": "to",
          "type": "address"
        },
        {
          "internalType": "uint256",
          "name": "amount",
          "type": "uint256"
        }
      ],
      "name": "onTokenBalanceChanged",
      "outputs": [],
      "stateMutability": "nonpayable",
      "type": "function"
    },
    {
      "inputs": [],
      "name": "retrieveChairPerson",
      "outputs": [
        {
          "internalType": "address",
          "name": "",
          "type": "address"
        }
      ],
      "stateMutability": "view",
      "type": "function"
    },
    {
      "inputs": [],
      "name": "retrieveManagerContract",
      "outputs": [
        {
          "internalType": "address",
          "name": "",
          "type": "address"
        }
      ],
      "stateMutability": "view",
      "type": "function"
    },
    {
      "inputs": [],
      "name": "retrieveNextPropId",
      "outputs": [
        {
          "internalType": "uint256",
          "name": "",
          "type": "uint256"
        }
      ],
      "stateMutability": "view",
      "type": "function"
    },
    {
      "inputs": [],
      "name": "retrieveProposition",
      "outputs": [
        {
          "internalType": "bytes[]",
          "name": "",
          "type": "bytes[]"
        }
      ],
      "stateMutability": "view",
      "type": "function"
    },
    {
      "inputs": [],
      "name": "retrievePropositionStatus",
      "outputs": [
        {
          "internalType": "address",
          "name": "",
          "type": "address"
        },
        {
          "internalType": "uint256",
          "name": "",
          "type": "uint256"
        },
        {
          "internalType": "uint256",
          "name": "",
          "type": "uint256"
        },
        {
          "internalType": "uint256",
          "name": "",
          "type": "uint256"
        },
        {
          "internalType": "uint256",
          "name": "",
          "type": "uint256"
        }
      ],
      "stateMutability": "view",
      "type": "function"
    },
    {
      "inputs": [
        {
          "internalType": "uint256",
          "name": "PropId",
          "type": "uint256"
        },
        {
          "internalType": "address",
          "name": "voter",
          "type": "address"
        }
      ],
      "name": "retrieveVotesForVoter",
      "outputs": [
        {
          "internalType": "uint256",
          "name": "",
          "type": "uint256"
        }
      ],
      "stateMutability": "view",
      "type": "function"
    },
    {
      "inputs": [
        {
          "internalType": "bytes[]",
          "name": "NewValues",
          "type": "bytes[]"
        }
      ],
      "name": "sendProposition",
      "outputs": [],
      "stateMutability": "nonpayable",
      "type": "function"
    },
    {
      "inputs": [
        {
          "internalType": "bool",
          "name": "vote",
          "type": "bool"
        }
      ],
      "name": "voteProposition",
      "outputs": [],
      "stateMutability": "nonpayable",
      "type": "function"
    },
    {
      "inputs": [
        {
          "internalType": "address",
          "name": "managerContractAddress",
          "type": "address"
        },
        {
          "internalType": "address",
          "name": "chairPerson",
          "type": "address"
        },
        {
          "internalType": "address[]",
          "name": "tokenAddresses",
          "type": "address[]"
        }
      ],
      "name": "Payments_init",
      "outputs": [],
      "stateMutability": "nonpayable",
      "type": "function"
    },
    {
      "inputs": [
        {
          "internalType": "address",
          "name": "sender",
          "type": "address"
        },
        {
          "internalType": "address",
          "name": "recipient",
          "type": "address"
        },
        {
          "internalType": "uint256",
          "name": "amount",
          "type": "uint256"
        },
        {
          "internalType": "uint256",
          "name": "MarketId",
          "type": "uint256"
        },
        {
          "internalType": "bytes",
          "name": "data",
          "type": "bytes"
        },
        {
          "internalType": "uint256",
          "name": "tokenId",
          "type": "uint256"
        }
      ],
      "name": "TransferFrom",
      "outputs": [],
      "stateMutability": "nonpayable",
      "type": "function"
    },
    {
      "inputs": [
        {
          "internalType": "address",
          "name": "account",
          "type": "address"
        },
        {
          "internalType": "uint256",
          "name": "tokenId",
          "type": "uint256"
        }
      ],
      "name": "BalanceOf",
      "outputs": [
        {
          "internalType": "uint256",
          "name": "",
          "type": "uint256"
        }
      ],
      "stateMutability": "view",
      "type": "function"
    },
    {
      "inputs": [],
      "name": "retrieveSettings",
      "outputs": [
        {
          "components": [
            {
              "internalType": "contract IERC20",
              "name": "TokenContract",
              "type": "address"
            },
            {
              "internalType": "bool",
              "name": "active",
              "type": "bool"
            }
          ],
          "internalType": "struct Library.PaymentTokenStruct[]",
          "name": "",
          "type": "tuple[]"
        }
      ],
      "stateMutability": "view",
      "type": "function"
    }
  ],
  "bytecode": "0x608060405234801561001057600080fd5b50612ee1806100206000396000f3fe608060405234801561001057600080fd5b50600436106100c55760003560e01c806304cc67a9146100ca5780632c2ec268146100e15780633c7df55d146100f65780634044adb21461010957806353fa2f1a1461011c57806355457ee91461012f5780635b362e8414610137578063840f6d171461015757806391f91671146101985780639ede86fa146101ab578063a93316f5146101be578063b049473f146101d3578063b1fd2359146101e8578063db85bc4d146101fb578063e15aa3a61461020c575b600080fd5b6008545b6040519081526020015b60405180910390f35b6100f46100ef3660046126c4565b61021f565b005b6100f4610104366004612683565b610913565b6100ce6101173660046129a2565b610a31565b6100ce61012a366004612741565b610a5b565b6100f4610b44565b6000546201000090046001600160a01b03165b6040516100d89190612a42565b600354600454600554600654600754604080516001600160a01b0390961686526020860194909452928401919091526060830152608082015260a0016100d8565b6100f46101a636600461294f565b610c1e565b6100f46101b93660046125b7565b610c2b565b6101c6610d90565b6040516100d89190612acb565b6101db610e69565b6040516100d89190612b2d565b6100f46101f636600461257e565b610ed8565b6001546001600160a01b031661014a565b6100f461021a366004612898565b610f56565b600b548190811080156102585750600b818154811061024057610240612e5c565b6000918252602090912001546001600160a01b031615155b6102cb5760405162461bcd60e51b815260206004820152603960248201527f7468697320746f6b656e20496420646f6573206e6f742068617665206120636f60448201527872726573706f6e64696e6720546f6b656e206164647265737360381b60648201526084015b60405180910390fd5b600b81815481106102de576102de612e5c565b600091825260209091200154600160a01b900460ff1615156001146103435760405162461bcd60e51b815260206004820152601b60248201527a7468697320746f6b656e204964206973206e6f742061637469766560281b60448201526064016102c2565b3384600060029054906101000a90046001600160a01b03166001600160a01b031663e220ad956040518163ffffffff1660e01b815260040160006040518083038186803b15801561039357600080fd5b505afa1580156103a7573d6000803e3d6000fd5b505050506040513d6000823e601f3d908101601f191682016040526103cf919081019061276d565b6001815181106103e1576103e1612e5c565b60200260200101516001600160a01b0316826001600160a01b031614806104bc5750600060029054906101000a90046001600160a01b03166001600160a01b031663e220ad956040518163ffffffff1660e01b815260040160006040518083038186803b15801561045157600080fd5b505afa158015610465573d6000803e3d6000fd5b505050506040513d6000823e601f3d908101601f1916820160405261048d919081019061276d565b60028151811061049f5761049f612e5c565b60200260200101516001600160a01b0316826001600160a01b0316145b8061057b5750600060029054906101000a90046001600160a01b03166001600160a01b031663e220ad956040518163ffffffff1660e01b815260040160006040518083038186803b15801561051057600080fd5b505afa158015610524573d6000803e3d6000fd5b505050506040513d6000823e601f3d908101601f1916820160405261054c919081019061276d565b60058151811061055e5761055e612e5c565b60200260200101516001600160a01b0316826001600160a01b0316145b8061063a5750600060029054906101000a90046001600160a01b03166001600160a01b031663e220ad956040518163ffffffff1660e01b815260040160006040518083038186803b1580156105cf57600080fd5b505afa1580156105e3573d6000803e3d6000fd5b505050506040513d6000823e601f3d908101601f1916820160405261060b919081019061276d565b60078151811061061d5761061d612e5c565b60200260200101516001600160a01b0316826001600160a01b0316145b8061064a575061064a8282610fd0565b6106ac5760405162461bcd60e51b815260206004820152602d60248201527f4974206973206e6f742066726f6d206f6e65206f66207468652063657274696660448201526c69656420636f6e74726163747360981b60648201526084016102c2565b86600b85815481106106c0576106c0612e5c565b600091825260209091200154604051636eb1769f60e11b81526001600160a01b039091169063dd62ed3e906106fb908d903090600401612a56565b60206040518083038186803b15801561071357600080fd5b505afa158015610727573d6000803e3d6000fd5b505050506040513d601f19601f8201168201806040525081019061074b9190612989565b10156107ae5760405162461bcd60e51b815260206004820152602c60248201527f436f6e747261637420646f6573206e6f74206861766520656e6f75676820617060448201526b70726f7665642066756e647360a01b60648201526084016102c2565b6000600b85815481106107c3576107c3612e5c565b6000918252602090912001546040516323b872dd60e01b81526001600160a01b03909116906323b872dd90610800908d908d908d90600401612a70565b602060405180830381600087803b15801561081a57600080fd5b505af115801561082e573d6000803e3d6000fd5b505050506040513d601f19601f82011682018060405250810190610852919061296c565b90506001811515146108a35760405162461bcd60e51b815260206004820152601a6024820152795472616e736665722046726f6d20646964206e6f7420776f726b60301b60448201526064016102c2565b604051638266251f60e01b81526001600160a01b038a1690638266251f906108d5908d908c908a908c90600401612a94565b600060405180830381600087803b1580156108ef57600080fd5b505af1158015610903573d6000803e3d6000fd5b5050505050505050505050505050565b3373__Library_______________________________6337ea306382600060029054906101000a90046001600160a01b03166001600160a01b031663e220ad956040518163ffffffff1660e01b815260040160006040518083038186803b15801561097d57600080fd5b505afa158015610991573d6000803e3d6000fd5b505050506040513d6000823e601f3d908101601f191682016040526109b9919081019061276d565b6003815181106109cb576109cb612e5c565b60200260200101516040518363ffffffff1660e01b81526004016109f0929190612a56565b60006040518083038186803b158015610a0857600080fd5b505af4158015610a1c573d6000803e3d6000fd5b50505050610a2b848484611121565b50505050565b60008281526009602090815260408083206001600160a01b03851684529091529020545b92915050565b600b5460009082101580610a945750600b8281548110610a7d57610a7d612e5c565b6000918252602090912001546001600160a01b0316155b15610aa157506000610a55565b600b8281548110610ab457610ab4612e5c565b6000918252602090912001546040516370a0823160e01b81526001600160a01b03909116906370a0823190610aed908690600401612a42565b60206040518083038186803b158015610b0557600080fd5b505afa158015610b19573d6000803e3d6000fd5b505050506040513d601f19601f82011682018060405250810190610b3d9190612989565b9392505050565b6001610b4f8161113e565b6003546040516337ea306360e01b8152339173__Library_______________________________916337ea306391610b959185916001600160a01b031690600401612a56565b60006040518083038186803b158015610bad57600080fd5b505af4158015610bc1573d6000803e3d6000fd5b50505050610bcd6111c2565b610bd56111cc565b6003546002546040519081526001600160a01b03909116907f1fe8aec10c0a50fa765076161e08c1f961ced69594ff45cf7d559f593afe14799060200160405180910390a25050565b610c2833826111f7565b50565b600054610100900460ff16610c465760005460ff1615610c4a565b303b155b610c665760405162461bcd60e51b81526004016102c290612cb3565b600054610100900460ff16158015610c88576000805461ffff19166101011790555b610c928385610ed8565b600082516001600160401b03811115610cad57610cad612e72565b604051908082528060200260200182016040528015610ce657816020015b610cd36123cd565b815260200190600190039081610ccb5790505b50905060005b8351811015610d6e5780828281518110610d0857610d08612e5c565b60200260200101516020018181525050838181518110610d2a57610d2a612e5c565b6020026020010151828281518110610d4457610d44612e5c565b60209081029190910101516001600160a01b03909116905280610d6681612e01565b915050610cec565b50610d788161130f565b508015610a2b576000805461ff001916905550505050565b6060600a805480602002602001604051908101604052809291908181526020016000905b82821015610e60578382906000526020600020018054610dd390612dcc565b80601f0160208091040260200160405190810160405280929190818152602001828054610dff90612dcc565b8015610e4c5780601f10610e2157610100808354040283529160200191610e4c565b820191906000526020600020905b815481529060010190602001808311610e2f57829003601f168201915b505050505081526020019060010190610db4565b50505050905090565b6060600b805480602002602001604051908101604052809291908181526020016000905b82821015610e6057600084815260209081902060408051808201909152908401546001600160a01b0381168252600160a01b900460ff16151581830152825260019092019101610e8d565b600054610100900460ff16610ef35760005460ff1615610ef7565b303b155b610f135760405162461bcd60e51b81526004016102c290612cb3565b600054610100900460ff16158015610f35576000805461ffff19166101011790555b610f3f83836115d1565b8015610f51576000805461ff00191690555b505050565b610f5f8161166d565b610f676116dd565b60005b8151811015610fcc57600a828281518110610f8757610f87612e5c565b60209081029190910181015182546001810184556000938452928290208151610fb994919091019291909101906123e4565b5080610fc481612e01565b915050610f6a565b5050565b600081610fdf57506000610a55565b60008060029054906101000a90046001600160a01b03166001600160a01b031663e220ad956040518163ffffffff1660e01b815260040160006040518083038186803b15801561102e57600080fd5b505afa158015611042573d6000803e3d6000fd5b505050506040513d6000823e601f3d908101601f1916820160405261106a919081019061276d565b60018151811061107c5761107c612e5c565b60200260200101519050806001600160a01b03166303231e5d846040518263ffffffff1660e01b81526004016110b491815260200190565b60206040518083038186803b1580156110cc57600080fd5b505afa1580156110e0573d6000803e3d6000fd5b505050506040513d601f19601f820116820180604052508101906111049190612561565b6001600160a01b0316846001600160a01b03161491505092915050565b611129611a2c565b151560011415610f5157610f51838383611a66565b80156111855761114c611a2c565b1515600114610c285760405162461bcd60e51b8152602060048201526005602482015264454332352d60d81b60448201526064016102c2565b61118d611a2c565b15610c285760405162461bcd60e51b8152602060048201526005602482015264454332342d60d81b60448201526064016102c2565b6111ca611bc7565b565b60006002819055600380546001600160a01b0319169055600481905560058190556006819055600755565b60016112028161113e565b600254839060006112138383611bd3565b90506000811161124d5760405162461bcd60e51b8152602060048201526005602482015264454332332d60d81b60448201526064016102c2565b600061125e87600260000154611bd3565b9050851561128657806002600401600082825461127b9190612d6a565b909155506112a19050565b806002600501600082825461129b9190612d6a565b90915550505b6002546112af908883611c09565b60025460408051918252871515602083015281018290526001600160a01b038816907f50f654d58981575c05e369cb129aeacb01e1b036af429380242cfc5d1a4b743f9060600160405180910390a2611306611c45565b50505050505050565b60005b8151811015610fcc57600b54825183908390811061133257611332612e5c565b60200260200101516020015110156114f75781818151811061135657611356612e5c565b6020908102919091010151516001600160a01b0316156114965781818151811061138257611382612e5c565b602002602001015160000151600b8383815181106113a2576113a2612e5c565b602002602001015160200151815481106113be576113be612e5c565b9060005260206000200160000160006101000a8154816001600160a01b0302191690836001600160a01b03160217905550600b82828151811061140357611403612e5c565b6020026020010151602001518154811061141f5761141f612e5c565b600091825260209091200154600160a01b900460ff16611491576001600b83838151811061144f5761144f612e5c565b6020026020010151602001518154811061146b5761146b612e5c565b60009182526020909120018054911515600160a01b0260ff60a01b199092169190911790555b6115bf565b600b8282815181106114aa576114aa612e5c565b602002602001015160200151815481106114c6576114c6612e5c565b600091825260209091200154600160a01b900460ff1615611491576000600b83838151811061144f5761144f612e5c565b81818151811061150957611509612e5c565b6020908102919091010151516001600160a01b0316156115bf576000604051806040016040528084848151811061154257611542612e5c565b602090810291909101810151516001600160a01b0390811683526001928201839052600b8054938401815560005283517f0175b7a638427703f0dbe7bb9bbf987a2551717b34e79f33b5b1008d1fa01db9909301805494909201511515600160a01b026001600160a81b0319909416921691909117919091179055505b806115c981612e01565b915050611312565b600054610100900460ff166115ec5760005460ff16156115f0565b303b155b61160c5760405162461bcd60e51b81526004016102c290612cb3565b600054610100900460ff1615801561162e576000805461ffff19166101011790555b61163782611d19565b600180546001600160a01b0319166001600160a01b03851617905560006008558015610f51576000805461ff0019169055505050565b806002815161167c9190612e1c565b15610fcc5760405162461bcd60e51b815260206004820152602b60248201527f466f722065616368206164647265737320616e6420696e646578206d7573742060448201526a1899481c1c9bdd9a59195960aa1b60648201526084016102c2565b60006116e88161113e565b60015433906000906001600160a01b03168214156117085750600161183e565b600061171383611dad565b905060008060029054906101000a90046001600160a01b03166001600160a01b031663e220ad956040518163ffffffff1660e01b815260040160006040518083038186803b15801561176457600080fd5b505afa158015611778573d6000803e3d6000fd5b505050506040513d6000823e601f3d908101601f191682016040526117a0919081019061276d565b6004815181106117b2576117b2612e5c565b60200260200101516001600160a01b031663b049473f6040518163ffffffff1660e01b815260040160606040518083038186803b1580156117f257600080fd5b505afa158015611806573d6000803e3d6000fd5b505050506040513d601f19601f8201168201806040525081019061182a91906129c7565b925050508082111561183b57600192505b50505b6001811515146118785760405162461bcd60e51b8152602060048201526005602482015264454332322d60d81b60448201526064016102c2565b600080600060029054906101000a90046001600160a01b03166001600160a01b031663e220ad956040518163ffffffff1660e01b815260040160006040518083038186803b1580156118c957600080fd5b505afa1580156118dd573d6000803e3d6000fd5b505050506040513d6000823e601f3d908101601f19168201604052611905919081019061276d565b60048151811061191757611917612e5c565b60200260200101516001600160a01b031663b049473f6040518163ffffffff1660e01b815260040160606040518083038186803b15801561195757600080fd5b505afa15801561196b573d6000803e3d6000fd5b505050506040513d601f19601f8201168201806040525081019061198f91906129c7565b50600380546001600160a01b0319163317905590925090506119b18242612d6a565b60045560058190556008805460028190559060006119ce83612e01565b90915550506003546002546004546005546040516001600160a01b03909416937f472501d19bf75639b2e316cd36f8568b0c3ab943b82a87de3c086c98c1929df993611a1d9390929091612d01565b60405180910390a25050505050565b600454600090421015611a3f5750600190565b6003546001600160a01b031615611a6057611a586111c2565b611a606111cc565b50600090565b6001600160a01b03831615801590611aa2575060025460009081526009602090815260408083206001600160a01b038716845290915290205415155b15610f515760025460009081526009602090815260408083206001600160a01b03871684529091529020548190811115611afe575060025460009081526009602090815260408083206001600160a01b03871684529091529020545b60025460009081526009602090815260408083206001600160a01b038816845290915281208054839290611b33908490612db5565b90915550506001600160a01b03831615611b825760025460009081526009602090815260408083206001600160a01b038716845290915281208054839290611b7c908490612d6a565b90915550505b6002546040517f65fbd5e5dd32bea4aeca85bd0be0abf0e489d655dee888a7510d43b06dda2dba90611bb990879087908690612a70565b60405180910390a250505050565b6111ca600a6000612468565b60008181526009602090815260408083206001600160a01b0386168452909152812054611bff84611dad565b610b3d9190612db5565b60008381526009602090815260408083206001600160a01b038616845290915281208054839290611c3b908490612d6a565b9091555050505050565b60055460065410611cb457611c58611ecd565b611c606111cc565b6003546002546006546007546040516001600160a01b03909416937f23ca0034cf5aad32571b4a492e9598ea8a490e1643a60970e3cdc6933b55e49f93611caa9390929091612d01565b60405180910390a2565b600554600754106111ca57611cc76111c2565b611ccf6111cc565b6003546002546006546007546040516001600160a01b03909416937fa58eb6daa3c62c3f883973c4035e5bd3e81aa627c8379de068a7de42df122be293611caa9390929091612d01565b600054610100900460ff16611d345760005460ff1615611d38565b303b155b611d545760405162461bcd60e51b81526004016102c290612cb3565b600054610100900460ff16158015611d76576000805461ffff19166101011790555b6000805462010000600160b01b031916620100006001600160a01b038516021790558015610fcc576000805461ff00191690555050565b60008060029054906101000a90046001600160a01b03166001600160a01b031663e220ad956040518163ffffffff1660e01b815260040160006040518083038186803b158015611dfc57600080fd5b505afa158015611e10573d6000803e3d6000fd5b505050506040513d6000823e601f3d908101601f19168201604052611e38919081019061276d565b600381518110611e4a57611e4a612e5c565b60200260200101516001600160a01b03166370a08231836040518263ffffffff1660e01b8152600401611e7d9190612a42565b60206040518083038186803b158015611e9557600080fd5b505afa158015611ea9573d6000803e3d6000fd5b505050506040513d601f19601f82011682018060405250810190610a559190612989565b6111c26000611eda61227e565b9050600060028251611eec9190612d82565b6001600160401b03811115611f0357611f03612e72565b604051908082528060200260200182016040528015611f3c57816020015b611f296123cd565b815260200190600190039081611f215790505b509050600060028351611f4f9190612d82565b6001600160401b03811115611f6657611f66612e72565b604051908082528060200260200182016040528015611f8f578160200160208202803683370190505b509050600060028451611fa29190612d82565b6001600160401b03811115611fb957611fb9612e72565b604051908082528060200260200182016040528015611fe2578160200160208202803683370190505b50905060005b83518110156122355773__UintLibrary___________________________630bd4715e86612017846002612d96565b8151811061202757612027612e5c565b60200260200101516040518263ffffffff1660e01b815260040161204d91815260200190565b60206040518083038186803b15801561206557600080fd5b505af4158015612079573d6000803e3d6000fd5b505050506040513d601f19601f8201168201806040525081019061209d9190612989565b8282815181106120af576120af612e5c565b602090810291909101015273__AddressLibrary________________________63f4ce9ae8866120e0846002612d96565b6120eb906001612d6a565b815181106120fb576120fb612e5c565b60200260200101516040518263ffffffff1660e01b815260040161212191815260200190565b60206040518083038186803b15801561213957600080fd5b505af415801561214d573d6000803e3d6000fd5b505050506040513d601f19601f820116820180604052508101906121719190612561565b83828151811061218357612183612e5c565b60200260200101906001600160a01b031690816001600160a01b0316815250508181815181106121b5576121b5612e5c565b60200260200101518482815181106121cf576121cf612e5c565b602002602001015160200181815250508281815181106121f1576121f1612e5c565b602002602001015184828151811061220b5761220b612e5c565b60209081029190910101516001600160a01b0390911690528061222d81612e01565b915050611fe8565b5061223f8361130f565b7fb204baf16d8d2698eeb2ef168ab72e0b57eb8b9fd83b12921c007d15bea8acc18183604051612270929190612b87565b60405180910390a150505050565b600a546060906000906001600160401b0381111561229e5761229e612e72565b6040519080825280602002602001820160405280156122c7578160200160208202803683370190505b50905060005b600a548110156123c75773__Library_______________________________63caa8f589600a838154811061230457612304612e5c565b906000526020600020016040518263ffffffff1660e01b815260040161232a9190612c0b565b60006040518083038186803b15801561234257600080fd5b505af4158015612356573d6000803e3d6000fd5b505050506040513d6000823e601f3d908101601f1916820160405261237e919081019061280d565b60008151811061239057612390612e5c565b60200260200101518282815181106123aa576123aa612e5c565b6020908102919091010152806123bf81612e01565b9150506122cd565b50919050565b604080518082019091526000808252602082015290565b8280546123f090612dcc565b90600052602060002090601f0160209004810192826124125760008555612458565b82601f1061242b57805160ff1916838001178555612458565b82800160010185558215612458579182015b8281111561245857825182559160200191906001019061243d565b50612464929150612486565b5090565b5080546000825590600052602060002090810190610c28919061249b565b5b808211156124645760008155600101612487565b808211156124645760006124af82826124b8565b5060010161249b565b5080546124c490612dcc565b6000825580601f106124d4575050565b601f016020900490600052602060002090810190610c289190612486565b600082601f83011261250357600080fd5b81356001600160401b0381111561251c5761251c612e72565b61252f601f8201601f1916602001612d17565b81815284602083860101111561254457600080fd5b816020850160208301376000918101602001919091529392505050565b60006020828403121561257357600080fd5b8151610b3d81612e88565b6000806040838503121561259157600080fd5b823561259c81612e88565b915060208301356125ac81612e88565b809150509250929050565b6000806000606084860312156125cc57600080fd5b83356125d781612e88565b92506020848101356125e881612e88565b925060408501356001600160401b0381111561260357600080fd5b8501601f8101871361261457600080fd5b803561262761262282612d47565b612d17565b8082825284820191508484018a868560051b870101111561264757600080fd5b600094505b8385101561267357803561265f81612e88565b83526001949094019391850191850161264c565b5080955050505050509250925092565b60008060006060848603121561269857600080fd5b83356126a381612e88565b925060208401356126b381612e88565b929592945050506040919091013590565b60008060008060008060c087890312156126dd57600080fd5b86356126e881612e88565b955060208701356126f881612e88565b9450604087013593506060870135925060808701356001600160401b0381111561272157600080fd5b61272d89828a016124f2565b92505060a087013590509295509295509295565b6000806040838503121561275457600080fd5b823561275f81612e88565b946020939093013593505050565b6000602080838503121561278057600080fd5b82516001600160401b0381111561279657600080fd5b8301601f810185136127a757600080fd5b80516127b561262282612d47565b80828252848201915084840188868560051b87010111156127d557600080fd5b600094505b838510156128015780516127ed81612e88565b8352600194909401939185019185016127da565b50979650505050505050565b6000602080838503121561282057600080fd5b82516001600160401b0381111561283657600080fd5b8301601f8101851361284757600080fd5b805161285561262282612d47565b80828252848201915084840188868560051b870101111561287557600080fd5b600094505b8385101561280157805183526001949094019391850191850161287a565b600060208083850312156128ab57600080fd5b82356001600160401b03808211156128c257600080fd5b818501915085601f8301126128d657600080fd5b81356128e461262282612d47565b80828252858201915085850189878560051b880101111561290457600080fd5b6000805b8581101561293f5782358781111561291e578283fd5b61292c8d8b838c01016124f2565b8652509388019391880191600101612908565b50919a9950505050505050505050565b60006020828403121561296157600080fd5b8135610b3d81612e9d565b60006020828403121561297e57600080fd5b8151610b3d81612e9d565b60006020828403121561299b57600080fd5b5051919050565b600080604083850312156129b557600080fd5b8235915060208301356125ac81612e88565b6000806000606084860312156129dc57600080fd5b8351925060208401519150604084015190509250925092565b6000815180845260005b81811015612a1b576020818501810151868301820152016129ff565b81811115612a2d576000602083870101525b50601f01601f19169290920160200192915050565b6001600160a01b0391909116815260200190565b6001600160a01b0392831681529116602082015260400190565b6001600160a01b039384168152919092166020820152604081019190915260600190565b60018060a01b0385168152836020820152826040820152608060608201526000612ac160808301846129f5565b9695505050505050565b6000602080830181845280855180835260408601915060408160051b870101925083870160005b82811015612b2057603f19888603018452612b0e8583516129f5565b94509285019290850190600101612af2565b5092979650505050505050565b602080825282518282018190526000919060409081850190868401855b82811015612b7a57815180516001600160a01b031685528601511515868501529284019290850190600101612b4a565b5091979650505050505050565b604080825283519082018190526000906020906060840190828701845b82811015612bc057815184529284019290840190600101612ba4565b5050508381038285015284518082528583019183019060005b81811015612bfe5783516001600160a01b031683529284019291840191600101612bd9565b5090979650505050505050565b600060208083526000845481600182811c915080831680612c2d57607f831692505b858310811415612c4b57634e487b7160e01b85526022600452602485fd5b878601838152602001818015612c685760018114612c7957612ca4565b60ff19861682528782019650612ca4565b60008b81526020902060005b86811015612c9e57815484820152908501908901612c85565b83019750505b50949998505050505050505050565b6020808252602e908201527f496e697469616c697a61626c653a20636f6e747261637420697320616c72656160408201526d191e481a5b9a5d1a585b1a5e995960921b606082015260800190565b9283526020830191909152604082015260600190565b604051601f8201601f191681016001600160401b0381118282101715612d3f57612d3f612e72565b604052919050565b60006001600160401b03821115612d6057612d60612e72565b5060051b60200190565b60008219821115612d7d57612d7d612e30565b500190565b600082612d9157612d91612e46565b500490565b6000816000190483118215151615612db057612db0612e30565b500290565b600082821015612dc757612dc7612e30565b500390565b600181811c90821680612de057607f821691505b602082108114156123c757634e487b7160e01b600052602260045260246000fd5b6000600019821415612e1557612e15612e30565b5060010190565b600082612e2b57612e2b612e46565b500690565b634e487b7160e01b600052601160045260246000fd5b634e487b7160e01b600052601260045260246000fd5b634e487b7160e01b600052603260045260246000fd5b634e487b7160e01b600052604160045260246000fd5b6001600160a01b0381168114610c2857600080fd5b8015158114610c2857600080fdfea26469706673582212200f5c1951a60bf81f363158bc401060247f7061dc31852018a8ed6154e2b78e8464736f6c63430008070033",
  "immutableReferences": {},
  "source": "// SPDX-License-Identifier: GPL-3.0\r\n\r\npragma solidity 0.8.7;\r\n\r\n/**\r\n * @title Storage\r\n * @dev Store & retrieve value in a variable\r\n */\r\n\r\nimport \"../Interfaces/IPayments.sol\";\r\nimport \"../Interfaces/IPool.sol\";\r\nimport \"../Interfaces/ICreditor.sol\";\r\nimport \"@openzeppelin/contracts/token/ERC20/IERC20.sol\";\r\nimport \"../Libraries/UintLibrary.sol\";\r\nimport \"../Base/StdPropositionBaseContract.sol\";\r\n\r\n\r\ncontract Payments is IPayments, StdPropositionBaseContract{\r\n    using UintLibrary for *;\r\n    using Library for *;\r\n\r\n    // EVENTS /////////////////////////////////////////\r\n    event _NewAddresses(uint[] index, address[] TokenAddresses);\r\n\r\n    // DATA /////////////////////////////////////////\r\n    Library.PaymentTokenStruct[] _Tokens;\r\n\r\n    // MODIFIERS /////////////////////////////////////////\r\n    modifier areAddressesOK(bytes[] memory NewValues)\r\n    {\r\n        require(NewValues.length % 2 == 0, \"For each address and index must be provided\");\r\n        _;\r\n    }\r\n\r\n    modifier isFromCertifiedContract(address addr, uint256 id)\r\n    {\r\n        require(\r\n            addr == _managerContract.retrieveTransparentProxies()[uint256(Library.TransparentProxies.PublicPool)] || \r\n            addr == _managerContract.retrieveTransparentProxies()[uint256(Library.TransparentProxies.Treasury)] || \r\n            addr == _managerContract.retrieveTransparentProxies()[uint256(Library.TransparentProxies.AdminPiggyBank)] || \r\n            addr == _managerContract.retrieveTransparentProxies()[uint256(Library.TransparentProxies.MarketsCredits)] || \r\n            isNFTMarket(addr, id) \r\n        , \"It is not from one of the certified contracts\");\r\n        _;\r\n    }\r\n\r\n    function isNFTMarket(address addr, uint256 id) internal view returns(bool)\r\n    {\r\n        if(0 == id) return false;\r\n        IPool PublicPool = IPool(_managerContract.retrieveTransparentProxies()[uint256(Library.TransparentProxies.PublicPool)]);\r\n        return (addr == PublicPool.retrieveNFTMarketForIssuer(id));\r\n    }\r\n\r\n    modifier isTokenIdOK(uint256 tokenId)\r\n    {\r\n        require(tokenId < _Tokens.length && \r\n            address(0) != address(_Tokens[tokenId].TokenContract), \"this token Id does not have a corresponding Token address\");\r\n        require(true == _Tokens[tokenId].active, \"this token Id is not active\");\r\n        _;\r\n    }\r\n   \r\n    // CONSTRUCTOR /////////////////////////////////////////\r\n    function Payments_init(address managerContractAddress, address chairPerson, address[] memory tokenAddresses) public initializer \r\n    {\r\n        super.StdPropositionBaseContract_init(chairPerson, managerContractAddress);\r\n\r\n        Library.NewPaymentTokenStruct[] memory initTokenAddresses = new Library.NewPaymentTokenStruct[](tokenAddresses.length);\r\n\r\n        for(uint i=0; i < tokenAddresses.length; i++){\r\n            initTokenAddresses[i].index = i;\r\n            initTokenAddresses[i].TokenContractAddress = tokenAddresses[i];\r\n        }\r\n\r\n        InternalupdateSettings(initTokenAddresses);\r\n    }\r\n\r\n    // GOVERNANCE /////////////////////////////////////////\r\n    function checkProposition(bytes[] memory NewValues) internal override \r\n        areAddressesOK(NewValues)\r\n    {}\r\n\r\n    function UpdateAll() internal override\r\n    {\r\n        bytes32[] memory ProposedNewValues = PropositionsToBytes32();\r\n        Library.NewPaymentTokenStruct[] memory newTokenAddresses = new Library.NewPaymentTokenStruct[](ProposedNewValues.length / 2);\r\n        address[] memory NewAddresses = new address[](ProposedNewValues.length / 2);\r\n        uint256[] memory Indexes = new uint256[](ProposedNewValues.length / 2);\r\n\r\n        for(uint256 i=0; i < newTokenAddresses.length; i++){\r\n            Indexes[i] = UintLibrary.Bytes32ToUint(ProposedNewValues[2 * i]);\r\n            NewAddresses[i] = AddressLibrary.Bytes32ToAddress(ProposedNewValues[(2 * i) + 1]);\r\n            newTokenAddresses[i].index = Indexes[i];\r\n            newTokenAddresses[i].TokenContractAddress = NewAddresses[i];\r\n        }\r\n\r\n        InternalupdateSettings(newTokenAddresses);\r\n        emit _NewAddresses(Indexes, NewAddresses);\r\n    }\r\n\r\n    function InternalupdateSettings(Library.NewPaymentTokenStruct[] memory tokenAddresses) internal\r\n    {\r\n        for(uint256 i=0; i < tokenAddresses.length; i++){\r\n            if(tokenAddresses[i].index < _Tokens.length){\r\n                if(address(0) != tokenAddresses[i].TokenContractAddress){\r\n                    _Tokens[tokenAddresses[i].index].TokenContract =  IERC20(tokenAddresses[i].TokenContractAddress);\r\n                    if(!_Tokens[tokenAddresses[i].index].active)_Tokens[tokenAddresses[i].index].active =  true;\r\n                } \r\n                else {\r\n                    if(_Tokens[tokenAddresses[i].index].active)_Tokens[tokenAddresses[i].index].active = false;\r\n                }\r\n            }\r\n            else{\r\n                if(address(0) != tokenAddresses[i].TokenContractAddress){\r\n                    Library.PaymentTokenStruct memory newToken = Library.PaymentTokenStruct(IERC20(tokenAddresses[i].TokenContractAddress), true);\r\n                    _Tokens.push(newToken);\r\n                }\r\n                \r\n            }\r\n        }\r\n    }\r\n\r\n    // FUNCTIONALITY /////////////////////////////////////////\r\n    function TransferFrom(address sender, address recipient, uint256 amount, uint256 MarketId, bytes memory data, uint256 tokenId) external override\r\n        isTokenIdOK(tokenId)\r\n        isFromCertifiedContract(msg.sender, MarketId)\r\n    {\r\n        require(_Tokens[tokenId].TokenContract.allowance(sender, address(this)) >= amount, \"Contract does not have enough approved funds\");\r\n        bool success = _Tokens[tokenId].TokenContract.transferFrom(sender, recipient, amount);\r\n        require(true == success, \"Transfer From did not work\");\r\n        ICreditor(recipient).CreditReceived(sender, amount, tokenId, data);\r\n    }\r\n\r\n    function BalanceOf(address account, uint256 tokenId) external override view returns(uint256)\r\n    {\r\n        if(tokenId >= _Tokens.length || address(0) == address(_Tokens[tokenId].TokenContract)) return 0;\r\n        return(_Tokens[tokenId].TokenContract.balanceOf(account));\r\n    }\r\n\r\n    function retrieveSettings() external override view returns(Library.PaymentTokenStruct[] memory)\r\n    {\r\n        return(_Tokens);\r\n    }\r\n\r\n}",
  "sourcePath": "C:\\Users\\d-aam\\GitHub\\Originals\\contracts\\MainContracts\\Payments.sol",
  "compiler": {
    "name": "solc",
    "version": "0.8.7+commit.e28d00a7.Emscripten.clang"
  },
  "schemaVersion": "3.4.3",
  "updatedAt": "2022-04-07T11:56:07.768Z",
  "devdoc": {
    "kind": "dev",
    "methods": {},
    "version": 1
  },
  "userdoc": {
    "kind": "user",
    "methods": {},
    "version": 1
  }
}