{
  "contractName": "Treasury",
  "abi": [
    {
      "anonymous": false,
      "inputs": [
        {
          "indexed": false,
          "internalType": "uint256",
          "name": "Id",
          "type": "uint256"
        },
        {
          "indexed": true,
          "internalType": "address",
          "name": "Proposer",
          "type": "address"
        },
        {
          "indexed": false,
          "internalType": "uint256",
          "name": "Deadline",
          "type": "uint256"
        },
        {
          "indexed": false,
          "internalType": "uint256",
          "name": "Threshold",
          "type": "uint256"
        }
      ],
      "name": "_AddedProposition",
      "type": "event"
    },
    {
      "anonymous": false,
      "inputs": [
        {
          "indexed": true,
          "internalType": "address",
          "name": "Recipient",
          "type": "address"
        },
        {
          "indexed": false,
          "internalType": "uint256",
          "name": "Amount",
          "type": "uint256"
        },
        {
          "indexed": false,
          "internalType": "uint256",
          "name": "TotalSupply",
          "type": "uint256"
        },
        {
          "indexed": false,
          "internalType": "uint256",
          "name": "tokenContractId",
          "type": "uint256"
        }
      ],
      "name": "_AssignDividend",
      "type": "event"
    },
    {
      "anonymous": false,
      "inputs": [
        {
          "indexed": false,
          "internalType": "uint256",
          "name": "Id",
          "type": "uint256"
        },
        {
          "indexed": true,
          "internalType": "address",
          "name": "Proposer",
          "type": "address"
        }
      ],
      "name": "_CancelledProposition",
      "type": "event"
    },
    {
      "anonymous": false,
      "inputs": [
        {
          "indexed": false,
          "internalType": "uint256[][]",
          "name": "Fees",
          "type": "uint256[][]"
        },
        {
          "indexed": false,
          "internalType": "uint256[]",
          "name": "TransactionFees",
          "type": "uint256[]"
        },
        {
          "indexed": false,
          "internalType": "uint256[]",
          "name": "OfferSettings",
          "type": "uint256[]"
        }
      ],
      "name": "_NewSettings",
      "type": "event"
    },
    {
      "anonymous": false,
      "inputs": [
        {
          "indexed": true,
          "internalType": "address",
          "name": "Payer",
          "type": "address"
        },
        {
          "indexed": false,
          "internalType": "uint256",
          "name": "Amount",
          "type": "uint256"
        },
        {
          "indexed": false,
          "internalType": "uint256",
          "name": "AggregatedAmount",
          "type": "uint256"
        },
        {
          "indexed": false,
          "internalType": "uint256",
          "name": "tokenContractId",
          "type": "uint256"
        }
      ],
      "name": "_Pay",
      "type": "event"
    },
    {
      "anonymous": false,
      "inputs": [
        {
          "indexed": false,
          "internalType": "uint256",
          "name": "Id",
          "type": "uint256"
        },
        {
          "indexed": true,
          "internalType": "address",
          "name": "Proposer",
          "type": "address"
        },
        {
          "indexed": false,
          "internalType": "uint256",
          "name": "VotesFor",
          "type": "uint256"
        },
        {
          "indexed": false,
          "internalType": "uint256",
          "name": "VotesAgainst",
          "type": "uint256"
        }
      ],
      "name": "_PropositionApproved",
      "type": "event"
    },
    {
      "anonymous": false,
      "inputs": [
        {
          "indexed": false,
          "internalType": "uint256",
          "name": "Id",
          "type": "uint256"
        },
        {
          "indexed": true,
          "internalType": "address",
          "name": "Proposer",
          "type": "address"
        },
        {
          "indexed": false,
          "internalType": "uint256",
          "name": "VotesFor",
          "type": "uint256"
        },
        {
          "indexed": false,
          "internalType": "uint256",
          "name": "VotesAgainst",
          "type": "uint256"
        }
      ],
      "name": "_PropositionRejected",
      "type": "event"
    },
    {
      "anonymous": false,
      "inputs": [
        {
          "indexed": false,
          "internalType": "uint256",
          "name": "Id",
          "type": "uint256"
        },
        {
          "indexed": true,
          "internalType": "address",
          "name": "Voter",
          "type": "address"
        },
        {
          "indexed": false,
          "internalType": "bool",
          "name": "Vote",
          "type": "bool"
        },
        {
          "indexed": false,
          "internalType": "uint256",
          "name": "AmountTokens",
          "type": "uint256"
        }
      ],
      "name": "_PropositionVote",
      "type": "event"
    },
    {
      "anonymous": false,
      "inputs": [
        {
          "indexed": true,
          "internalType": "uint256",
          "name": "Id",
          "type": "uint256"
        },
        {
          "indexed": false,
          "internalType": "address",
          "name": "From",
          "type": "address"
        },
        {
          "indexed": false,
          "internalType": "address",
          "name": "To",
          "type": "address"
        },
        {
          "indexed": false,
          "internalType": "uint256",
          "name": "Amount",
          "type": "uint256"
        }
      ],
      "name": "_UsedTokensTransfered",
      "type": "event"
    },
    {
      "anonymous": false,
      "inputs": [
        {
          "indexed": true,
          "internalType": "address",
          "name": "Recipient",
          "type": "address"
        },
        {
          "indexed": false,
          "internalType": "uint256",
          "name": "Amount",
          "type": "uint256"
        },
        {
          "indexed": false,
          "internalType": "uint256",
          "name": "tokenContractId",
          "type": "uint256"
        }
      ],
      "name": "_Withdraw",
      "type": "event"
    },
    {
      "inputs": [
        {
          "internalType": "address",
          "name": "sender",
          "type": "address"
        },
        {
          "internalType": "uint256",
          "name": "amount",
          "type": "uint256"
        },
        {
          "internalType": "uint256",
          "name": "paymentTokenID",
          "type": "uint256"
        },
        {
          "internalType": "bytes",
          "name": "data",
          "type": "bytes"
        }
      ],
      "name": "CreditReceived",
      "outputs": [],
      "stateMutability": "nonpayable",
      "type": "function"
    },
    {
      "inputs": [
        {
          "internalType": "address",
          "name": "chairPerson",
          "type": "address"
        },
        {
          "internalType": "address",
          "name": "managerContractAddress",
          "type": "address"
        }
      ],
      "name": "StdPropositionBaseContract_init",
      "outputs": [],
      "stateMutability": "nonpayable",
      "type": "function"
    },
    {
      "inputs": [],
      "name": "cancelProposition",
      "outputs": [],
      "stateMutability": "nonpayable",
      "type": "function"
    },
    {
      "inputs": [
        {
          "internalType": "address",
          "name": "from",
          "type": "address"
        },
        {
          "internalType": "address",
          "name": "to",
          "type": "address"
        },
        {
          "internalType": "uint256",
          "name": "amount",
          "type": "uint256"
        }
      ],
      "name": "onTokenBalanceChanged",
      "outputs": [],
      "stateMutability": "nonpayable",
      "type": "function"
    },
    {
      "inputs": [],
      "name": "retrieveChairPerson",
      "outputs": [
        {
          "internalType": "address",
          "name": "",
          "type": "address"
        }
      ],
      "stateMutability": "view",
      "type": "function"
    },
    {
      "inputs": [],
      "name": "retrieveManagerContract",
      "outputs": [
        {
          "internalType": "address",
          "name": "",
          "type": "address"
        }
      ],
      "stateMutability": "view",
      "type": "function"
    },
    {
      "inputs": [],
      "name": "retrieveNextPropId",
      "outputs": [
        {
          "internalType": "uint256",
          "name": "",
          "type": "uint256"
        }
      ],
      "stateMutability": "view",
      "type": "function"
    },
    {
      "inputs": [],
      "name": "retrieveProposition",
      "outputs": [
        {
          "internalType": "bytes[]",
          "name": "",
          "type": "bytes[]"
        }
      ],
      "stateMutability": "view",
      "type": "function"
    },
    {
      "inputs": [],
      "name": "retrievePropositionStatus",
      "outputs": [
        {
          "internalType": "address",
          "name": "",
          "type": "address"
        },
        {
          "internalType": "uint256",
          "name": "",
          "type": "uint256"
        },
        {
          "internalType": "uint256",
          "name": "",
          "type": "uint256"
        },
        {
          "internalType": "uint256",
          "name": "",
          "type": "uint256"
        },
        {
          "internalType": "uint256",
          "name": "",
          "type": "uint256"
        }
      ],
      "stateMutability": "view",
      "type": "function"
    },
    {
      "inputs": [
        {
          "internalType": "uint256",
          "name": "PropId",
          "type": "uint256"
        },
        {
          "internalType": "address",
          "name": "voter",
          "type": "address"
        }
      ],
      "name": "retrieveVotesForVoter",
      "outputs": [
        {
          "internalType": "uint256",
          "name": "",
          "type": "uint256"
        }
      ],
      "stateMutability": "view",
      "type": "function"
    },
    {
      "inputs": [
        {
          "internalType": "bytes[]",
          "name": "NewValues",
          "type": "bytes[]"
        }
      ],
      "name": "sendProposition",
      "outputs": [],
      "stateMutability": "nonpayable",
      "type": "function"
    },
    {
      "inputs": [
        {
          "internalType": "bool",
          "name": "vote",
          "type": "bool"
        }
      ],
      "name": "voteProposition",
      "outputs": [],
      "stateMutability": "nonpayable",
      "type": "function"
    },
    {
      "inputs": [
        {
          "internalType": "uint256[][]",
          "name": "Fees",
          "type": "uint256[][]"
        },
        {
          "internalType": "uint256[]",
          "name": "TransferFees",
          "type": "uint256[]"
        },
        {
          "internalType": "uint256[]",
          "name": "OfferSettings",
          "type": "uint256[]"
        },
        {
          "internalType": "address",
          "name": "managerContractAddress",
          "type": "address"
        },
        {
          "internalType": "address",
          "name": "chairPerson",
          "type": "address"
        }
      ],
      "name": "Treasury_init",
      "outputs": [],
      "stateMutability": "nonpayable",
      "type": "function"
    },
    {
      "inputs": [
        {
          "internalType": "uint256",
          "name": "amount",
          "type": "uint256"
        },
        {
          "internalType": "uint256",
          "name": "paymentTokenID",
          "type": "uint256"
        }
      ],
      "name": "withdraw",
      "outputs": [],
      "stateMutability": "nonpayable",
      "type": "function"
    },
    {
      "inputs": [
        {
          "internalType": "uint256",
          "name": "paymentTokenID",
          "type": "uint256"
        }
      ],
      "name": "withdrawAll",
      "outputs": [],
      "stateMutability": "nonpayable",
      "type": "function"
    },
    {
      "inputs": [
        {
          "internalType": "address",
          "name": "addr",
          "type": "address"
        },
        {
          "internalType": "uint256",
          "name": "paymentTokenID",
          "type": "uint256"
        }
      ],
      "name": "retrieveLastAssigned",
      "outputs": [
        {
          "internalType": "uint256",
          "name": "",
          "type": "uint256"
        }
      ],
      "stateMutability": "view",
      "type": "function"
    },
    {
      "inputs": [
        {
          "internalType": "address",
          "name": "addr",
          "type": "address"
        },
        {
          "internalType": "uint256",
          "name": "paymentTokenID",
          "type": "uint256"
        }
      ],
      "name": "retrieveFullBalance",
      "outputs": [
        {
          "internalType": "uint256",
          "name": "",
          "type": "uint256"
        }
      ],
      "stateMutability": "view",
      "type": "function"
    },
    {
      "inputs": [],
      "name": "retrieveSettings",
      "outputs": [
        {
          "internalType": "uint256[][]",
          "name": "",
          "type": "uint256[][]"
        },
        {
          "internalType": "uint256[]",
          "name": "",
          "type": "uint256[]"
        },
        {
          "internalType": "uint256[]",
          "name": "",
          "type": "uint256[]"
        }
      ],
      "stateMutability": "view",
      "type": "function"
    },
    {
      "inputs": [
        {
          "internalType": "uint256",
          "name": "paymentTokenID",
          "type": "uint256"
        }
      ],
      "name": "retrieveAggregatedAmount",
      "outputs": [
        {
          "internalType": "uint256",
          "name": "",
          "type": "uint256"
        }
      ],
      "stateMutability": "view",
      "type": "function"
    }
  ],
  "bytecode": "0x608060405234801561001057600080fd5b50613ad8806100206000396000f3fe608060405234801561001057600080fd5b50600436106100f15760003560e01c806304cc67a9146100f6578063066fca8f1461010d57806315f9969f146101225780633c7df55d146101575780634044adb21461016a578063441a3e70146101a057806355457ee9146101b35780635b362e84146101bb5780637dacc160146101db5780638266251f146101ee578063840f6d171461020157806391f9167114610242578063958e2d3114610255578063a93316f514610268578063b049473f1461027d578063b1fd235914610294578063b50a46cb146102a7578063db85bc4d146102ba578063e15aa3a6146102cb575b600080fd5b6008545b6040519081526020015b60405180910390f35b61012061011b3660046131c1565b6102de565b005b6100fa610130366004613093565b6000908152600f602090815260408083206001600160a01b03949094168352929052205490565b610120610165366004613052565b61052d565b6100fa61017836600461353a565b60009182526009602090815260408084206001600160a01b0393909316845291905290205490565b6101206101ae36600461355f565b61064b565b610120610659565b6000546201000090046001600160a01b03165b604051610104919061365b565b6100fa6101e9366004613093565b610734565b6101206101fc3660046130bf565b610747565b600354600454600554600654600754604080516001600160a01b0390961686526020860194909452928401919091526060830152608082015260a001610104565b6101206102503660046134eb565b610934565b610120610263366004613508565b610941565b610270610959565b6040516101049190613714565b610285610a32565b60405161010493929190613689565b6101206102a2366004613019565b610b7f565b6100fa6102b5366004613508565b610bfd565b6001546001600160a01b03166101ce565b6101206102d9366004613367565b610c3c565b600054610100900460ff166102f95760005460ff16156102fd565b303b155b6103225760405162461bcd60e51b81526004016103199061381e565b60405180910390fd5b600054610100900460ff16158015610344576000805461ffff19166101011790555b61034e8284610b7f565b600086516001600160401b0381111561036957610369613a49565b60405190808252806020026020018201604052801561039c57816020015b60608152602001906001900390816103875790505b508751909150156105075760005b81518110156105055760008882815181106103c7576103c7613a33565b60200260200101515160016103dc919061395d565b6001600160401b038111156103f3576103f3613a49565b60405190808252806020026020018201604052801561041c578160200160208202803683370190505b509050818160008151811061043357610433613a33565b60200260200101818152505060005b89838151811061045457610454613a33565b6020026020010151518110156104d25789838151811061047657610476613a33565b6020026020010151818151811061048f5761048f613a33565b6020026020010151828260016104a5919061395d565b815181106104b5576104b5613a33565b6020908102919091010152806104ca81613a02565b915050610442565b50808383815181106104e6576104e6613a33565b60200260200101819052505080806104fd90613a02565b9150506103aa565b505b610512818787610cb2565b508015610525576000805461ff00191690555b505050505050565b3373__Library_______________________________6337ea306382600060029054906101000a90046001600160a01b03166001600160a01b031663e220ad956040518163ffffffff1660e01b815260040160006040518083038186803b15801561059757600080fd5b505afa1580156105ab573d6000803e3d6000fd5b505050506040513d6000823e601f3d908101601f191682016040526105d39190810190613121565b6003815181106105e5576105e5613a33565b60200260200101516040518363ffffffff1660e01b815260040161060a92919061366f565b60006040518083038186803b15801561062257600080fd5b505af4158015610636573d6000803e3d6000fd5b505050506106458484846111d0565b50505050565b610655828261124d565b5050565b60016106648161145c565b6003546040516337ea306360e01b8152339173__Library_______________________________916337ea3063916106aa9185916001600160a01b03169060040161366f565b60006040518083038186803b1580156106c257600080fd5b505af41580156106d6573d6000803e3d6000fd5b505050506106e26114e0565b6106ea6114ea565b6003546002546040519081526001600160a01b03909116907f1fe8aec10c0a50fa765076161e08c1f961ced69594ff45cf7d559f593afe1479906020015b60405180910390a25050565b60006107408383611515565b9392505050565b33600060029054906101000a90046001600160a01b03166001600160a01b031663e220ad956040518163ffffffff1660e01b815260040160006040518083038186803b15801561079657600080fd5b505afa1580156107aa573d6000803e3d6000fd5b505050506040513d6000823e601f3d908101601f191682016040526107d29190810190613121565b6006815181106107e4576107e4613a33565b60200260200101516001600160a01b0316816001600160a01b031614806108bf5750600060029054906101000a90046001600160a01b03166001600160a01b031663e220ad956040518163ffffffff1660e01b815260040160006040518083038186803b15801561085457600080fd5b505afa158015610868573d6000803e3d6000fd5b505050506040513d6000823e601f3d908101601f191682016040526108909190810190613121565b6007815181106108a2576108a2613a33565b60200260200101516001600160a01b0316816001600160a01b0316145b6109215760405162461bcd60e51b815260206004820152602d60248201527f4974206973206e6f742066726f6d206f6e65206f66207468652063657274696660448201526c69656420636f6e74726163747360981b6064820152608401610319565b61092d8585858561153c565b5050505050565b61093e3382611649565b50565b600061094d3383611515565b9050610655818361124d565b6060600a805480602002602001604051908101604052809291908181526020016000905b82821015610a2957838290600052602060002001805461099c906139cd565b80601f01602080910402602001604051908101604052809291908181526020018280546109c8906139cd565b8015610a155780601f106109ea57610100808354040283529160200191610a15565b820191906000526020600020905b8154815290600101906020018083116109f857829003601f168201915b50505050508152602001906001019061097d565b50505050905090565b6060806060600b600c600d82805480602002602001604051908101604052809291908181526020016000905b82821015610aca57600084815260209081902083018054604080518285028101850190915281815292830182828015610ab657602002820191906000526020600020905b815481526020019060010190808311610aa2575b505050505081526020019060010190610a5e565b50505050925081805480602002602001604051908101604052809291908181526020018280548015610b1b57602002820191906000526020600020905b815481526020019060010190808311610b07575b5050505050915080805480602002602001604051908101604052809291908181526020018280548015610b6d57602002820191906000526020600020905b815481526020019060010190808311610b59575b50505050509050925092509250909192565b600054610100900460ff16610b9a5760005460ff1615610b9e565b303b155b610bba5760405162461bcd60e51b81526004016103199061381e565b600054610100900460ff16158015610bdc576000805461ffff19166101011790555b610be68383611758565b8015610bf8576000805461ff00191690555b505050565b600e54600090821015610c2f57600e8281548110610c1d57610c1d613a33565b90600052602060002001549050919050565b506000919050565b919050565b610c45816117f4565b610c4d611839565b60005b815181101561065557600a828281518110610c6d57610c6d613a33565b60209081029190910181015182546001810184556000938452928290208151610c9f9491909101929190910190612de5565b5080610caa81613a02565b915050610c50565b600b54839015610d6f5760005b8151811015610d6d57818181518110610cda57610cda613a33565b602002602001015151600b600081548110610cf757610cf7613a33565b600091825260209091200154610d0e90600161395d565b14610d5b5760405162461bcd60e51b815260206004820152601d60248201527f4e756d626572206f66204665657320646f6573206e6f74206d617463680000006044820152606401610319565b80610d6581613a02565b915050610cbf565b505b600c54839015610dda578051600c5414610dda5760405162461bcd60e51b815260206004820152602660248201527f4e756d626572206f66205472616e73666572204665657320646f6573206e6f74604482015265040dac2e8c6d60d31b6064820152608401610319565b600d54839015610e46578051600d5414610e465760405162461bcd60e51b815260206004820152602760248201527f4e756d626572206f66204f666665722053657474696e677320646f6573206e6f6044820152660e840dac2e8c6d60cb1b6064820152608401610319565b60005b8651811015611091576000878281518110610e6657610e66613a33565b6020026020010151600081518110610e8057610e80613a33565b60200260200101519050600b80549050811015610f515760005b600b8281548110610ead57610ead613a33565b600091825260209091200154811015610f4b57888381518110610ed257610ed2613a33565b6020026020010151816001610ee7919061395d565b81518110610ef757610ef7613a33565b6020026020010151600b8381548110610f1257610f12613a33565b906000526020600020018281548110610f2d57610f2d613a33565b60009182526020909120015580610f4381613a02565b915050610e9a565b5061107e565b60006001898481518110610f6757610f67613a33565b602002602001015151610f7a91906139b6565b6001600160401b03811115610f9157610f91613a49565b604051908082528060200260200182016040528015610fba578160200160208202803683370190505b50905060005b815181101561103757898481518110610fdb57610fdb613a33565b6020026020010151816001610ff0919061395d565b8151811061100057611000613a33565b602002602001015182828151811061101a5761101a613a33565b60209081029190910101528061102f81613a02565b915050610fc0565b50600b8054600181018255600091909152815161107b917f0175b7a638427703f0dbe7bb9bbf987a2551717b34e79f33b5b1008d1fa01db901906020840190612e69565b50505b508061108981613a02565b915050610e49565b5060005b855181101561112c57600c548110156110e6578581815181106110ba576110ba613a33565b6020026020010151600c82815481106110d5576110d5613a33565b60009182526020909120015561111a565b600c8682815181106110fa576110fa613a33565b602090810291909101810151825460018101845560009384529190922001555b8061112481613a02565b915050611095565b5060005b84518110156111c757600d548110156111815784818151811061115557611155613a33565b6020026020010151600d828154811061117057611170613a33565b6000918252602090912001556111b5565b600d85828151811061119557611195613a33565b602090810291909101810151825460018101845560009384529190922001555b806111bf81613a02565b915050611130565b50505050505050565b6111db838383611b88565b6001600160a01b038316156112155760005b600e54811015611213576112018482611ba5565b8061120b81613a02565b9150506111ed565b505b6001600160a01b03821615610bf85760005b600e548110156106455761123b8382611ba5565b8061124581613a02565b915050611227565b6112573382611ba5565b60008181526010602090815260408083203380855292528083208354825163e220ad9560e01b8152925173__ItemsLibrary__________________________956318b84a21959394899493600193620100009091046001600160a01b03169263e220ad959260048082019391829003018186803b1580156112d757600080fd5b505afa1580156112eb573d6000803e3d6000fd5b505050506040513d6000823e601f3d908101601f191682016040526113139190810190613121565b60068151811061132557611325613a33565b60200260200101516001600160a01b031663b049473f6040518163ffffffff1660e01b815260040160006040518083038186803b15801561136557600080fd5b505afa158015611379573d6000803e3d6000fd5b505050506040513d6000823e601f3d908101601f191682016040526113a1919081019061341e565b87815181106113b2576113b2613a33565b602002602001015160000151600060405180602001604052806000815250896040518963ffffffff1660e01b81526004016113f498979695949392919061386c565b60006040518083038186803b15801561140c57600080fd5b505af4158015611420573d6000803e3d6000fd5b505060408051858152602081018590523393507fe3a578db023c93c17a32f818b53100ba3479950e72d911afbee045639067f87f925001610728565b80156114a35761146a611ccf565b151560011461093e5760405162461bcd60e51b8152602060048201526005602482015264454332352d60d81b6044820152606401610319565b6114ab611ccf565b1561093e5760405162461bcd60e51b8152602060048201526005602482015264454332342d60d81b6044820152606401610319565b6114e8611d09565b565b60006002819055600380546001600160a01b0319169055600481905560058190556006819055600755565b60008060006115248585611d15565b90925090506115338183613975565b95945050505050565b600e5482101561157e5782600e838154811061155a5761155a613a33565b906000526020600020016000828254611573919061395d565b909155506115e19050565b600e545b828110156115bc57600e80546001810182556000918252600080516020613a838339815191520155806115b481613a02565b915050611582565b50600e8054600181018255600091909152600080516020613a83833981519152018390555b836001600160a01b03167fa0e5c002871629acffe2f6c9e7932d18ed4493526043875a27b3011d7981370684600e858154811061162057611620613a33565b90600052602060002001548560405161163b939291906138cc565b60405180910390a250505050565b60016116548161145c565b600254839060006116658383611d7a565b90506000811161169f5760405162461bcd60e51b8152602060048201526005602482015264454332332d60d81b6044820152606401610319565b60006116b087600260000154611d7a565b905085156116d85780600260040160008282546116cd919061395d565b909155506116f39050565b80600260050160008282546116ed919061395d565b90915550505b600254611701908883611db0565b60025460408051918252871515602083015281018290526001600160a01b038816907f50f654d58981575c05e369cb129aeacb01e1b036af429380242cfc5d1a4b743f9060600160405180910390a26111c7611dec565b600054610100900460ff166117735760005460ff1615611777565b303b155b6117935760405162461bcd60e51b81526004016103199061381e565b600054610100900460ff161580156117b5576000805461ffff19166101011790555b6117be82611ec0565b600180546001600160a01b0319166001600160a01b03851617905560006008558015610bf8576000805461ff0019169055505050565b60038151101561093e5760405162461bcd60e51b815260206004820152601060248201526f4d697373696e672053657474696e677360801b6044820152606401610319565b60006118448161145c565b60015433906000906001600160a01b03168214156118645750600161199a565b600061186f83611f54565b905060008060029054906101000a90046001600160a01b03166001600160a01b031663e220ad956040518163ffffffff1660e01b815260040160006040518083038186803b1580156118c057600080fd5b505afa1580156118d4573d6000803e3d6000fd5b505050506040513d6000823e601f3d908101601f191682016040526118fc9190810190613121565b60048151811061190e5761190e613a33565b60200260200101516001600160a01b031663b049473f6040518163ffffffff1660e01b815260040160606040518083038186803b15801561194e57600080fd5b505afa158015611962573d6000803e3d6000fd5b505050506040513d601f19601f8201168201806040525081019061198691906135a5565b925050508082111561199757600192505b50505b6001811515146119d45760405162461bcd60e51b8152602060048201526005602482015264454332322d60d81b6044820152606401610319565b600080600060029054906101000a90046001600160a01b03166001600160a01b031663e220ad956040518163ffffffff1660e01b815260040160006040518083038186803b158015611a2557600080fd5b505afa158015611a39573d6000803e3d6000fd5b505050506040513d6000823e601f3d908101601f19168201604052611a619190810190613121565b600481518110611a7357611a73613a33565b60200260200101516001600160a01b031663b049473f6040518163ffffffff1660e01b815260040160606040518083038186803b158015611ab357600080fd5b505afa158015611ac7573d6000803e3d6000fd5b505050506040513d601f19601f82011682018060405250810190611aeb91906135a5565b50600380546001600160a01b031916331790559092509050611b0d824261395d565b6004556005819055600880546002819055906000611b2a83613a02565b90915550506003546002546004546005546040516001600160a01b03909416937f472501d19bf75639b2e316cd36f8568b0c3ab943b82a87de3c086c98c1929df993611b7993909290916138cc565b60405180910390a25050505050565b611b90611ccf565b151560011415610bf857610bf883838361207a565b600e5481101561065557600080611bbc84846121e1565b91509150600e8381548110611bd357611bd3613a33565b6000918252602080832090910154858352600f825260408084206001600160a01b038916855290925291205581156106455760008381526010602090815260408083206001600160a01b0388168452909152908190209051633833532760e01b815273__ItemsLibrary__________________________91633833532791611c629190869086906004016138cc565b60006040518083038186803b158015611c7a57600080fd5b505af4158015611c8e573d6000803e3d6000fd5b50505050836001600160a01b03167fd594bb9b33d8e7d250dcc95a70d74fbd1e03e16d3e7660f60b12149bd7fd2a1283838660405161163b939291906138cc565b600454600090421015611ce25750600190565b6003546001600160a01b031615611d0357611cfb6114e0565b611d036114ea565b50600090565b6114e8600a6000612ea3565b600080600080611d2586866122b2565b91509150600080611d3688886121e1565b90925090506000611d478484613997565b611d518387613997565b611d5b919061395d565b90506000611d698386613997565b919a91995090975050505050505050565b60008181526009602090815260408083206001600160a01b0386168452909152812054611da684611f54565b61074091906139b6565b60008381526009602090815260408083206001600160a01b038616845290915281208054839290611de290849061395d565b9091555050505050565b60055460065410611e5b57611dff612369565b611e076114ea565b6003546002546006546007546040516001600160a01b03909416937f23ca0034cf5aad32571b4a492e9598ea8a490e1643a60970e3cdc6933b55e49f93611e5193909290916138cc565b60405180910390a2565b600554600754106114e857611e6e6114e0565b611e766114ea565b6003546002546006546007546040516001600160a01b03909416937fa58eb6daa3c62c3f883973c4035e5bd3e81aa627c8379de068a7de42df122be293611e5193909290916138cc565b600054610100900460ff16611edb5760005460ff1615611edf565b303b155b611efb5760405162461bcd60e51b81526004016103199061381e565b600054610100900460ff16158015611f1d576000805461ffff19166101011790555b6000805462010000600160b01b031916620100006001600160a01b038516021790558015610655576000805461ff00191690555050565b60008060029054906101000a90046001600160a01b03166001600160a01b031663e220ad956040518163ffffffff1660e01b815260040160006040518083038186803b158015611fa357600080fd5b505afa158015611fb7573d6000803e3d6000fd5b505050506040513d6000823e601f3d908101601f19168201604052611fdf9190810190613121565b600381518110611ff157611ff1613a33565b60200260200101516001600160a01b03166370a08231836040518263ffffffff1660e01b8152600401612024919061365b565b60206040518083038186803b15801561203c57600080fd5b505afa158015612050573d6000803e3d6000fd5b505050506040513d601f19601f820116820180604052508101906120749190613521565b92915050565b6001600160a01b038316158015906120b6575060025460009081526009602090815260408083206001600160a01b038716845290915290205415155b15610bf85760025460009081526009602090815260408083206001600160a01b03871684529091529020548190811115612112575060025460009081526009602090815260408083206001600160a01b03871684529091529020545b60025460009081526009602090815260408083206001600160a01b0388168452909152812080548392906121479084906139b6565b90915550506001600160a01b038316156121965760025460009081526009602090815260408083206001600160a01b03871684529091528120805483929061219090849061395d565b90915550505b600254604080516001600160a01b038088168252861660208201529081018390527f65fbd5e5dd32bea4aeca85bd0be0abf0e489d655dee888a7510d43b06dda2dba9060600161163b565b6000806000600e80549050841080156122365750600e848154811061220857612208613a33565b6000918252602080832090910154868352600f825260408084206001600160a01b038a168552909252912054105b1561229d5761224485611f54565b6000858152600f602090815260408083206001600160a01b038a168452909152902054600e80548790811061227b5761227b613a33565b906000526020600020015461229091906139b6565b61229a9190613997565b90505b806122a6612371565b92509250509250929050565b60008181526010602090815260408083206001600160a01b03861684529091528082209051633bff41ff60e21b8152829173__ItemsLibrary__________________________9163effd07fc9161230f9160040190815260200190565b604080518083038186803b15801561232657600080fd5b505af415801561233a573d6000803e3d6000fd5b505050506040513d601f19601f8201168201806040525081019061235e9190613581565b915091509250929050565b6114e061248b565b60008060029054906101000a90046001600160a01b03166001600160a01b031663e220ad956040518163ffffffff1660e01b815260040160006040518083038186803b1580156123c057600080fd5b505afa1580156123d4573d6000803e3d6000fd5b505050506040513d6000823e601f3d908101601f191682016040526123fc9190810190613121565b60038151811061240e5761240e613a33565b60200260200101516001600160a01b03166318160ddd6040518163ffffffff1660e01b815260040160206040518083038186803b15801561244e57600080fd5b505afa158015612462573d6000803e3d6000fd5b505050506040513d601f19601f820116820180604052508101906124869190613521565b905090565b600080612496612c96565b9050600073__UintLibrary___________________________630bd4715e83856124bf81613a02565b9650815181106124d1576124d1613a33565b60200260200101516040518263ffffffff1660e01b81526004016124f791815260200190565b60206040518083038186803b15801561250f57600080fd5b505af4158015612523573d6000803e3d6000fd5b505050506040513d601f19601f820116820180604052508101906125479190613521565b9050600073__UintLibrary___________________________630bd4715e848661257081613a02565b97508151811061258257612582613a33565b60200260200101516040518263ffffffff1660e01b81526004016125a891815260200190565b60206040518083038186803b1580156125c057600080fd5b505af41580156125d4573d6000803e3d6000fd5b505050506040513d601f19601f820116820180604052508101906125f89190613521565b9050600061260782600161395d565b9050600073__UintLibrary___________________________630bd4715e868861263081613a02565b99508151811061264257612642613a33565b60200260200101516040518263ffffffff1660e01b815260040161266891815260200190565b60206040518083038186803b15801561268057600080fd5b505af4158015612694573d6000803e3d6000fd5b505050506040513d601f19601f820116820180604052508101906126b89190613521565b90506000846001600160401b038111156126d4576126d4613a49565b60405190808252806020026020018201604052801561270757816020015b60608152602001906001900390816126f25790505b5090506000826001600160401b0381111561272457612724613a49565b60405190808252806020026020018201604052801561274d578160200160208202803683370190505b5090506000838961275e878a613997565b8a5161276a91906139b6565b61277491906139b6565b61277e91906139b6565b6001600160401b0381111561279557612795613a49565b6040519080825280602002602001820160405280156127be578160200160208202803683370190505b509050836127cc8689613997565b6127d6908b61395d565b6127e0919061395d565b885110156128445760405162461bcd60e51b815260206004820152602b60248201527f54686572652061726520736f6d65206d697373696e67206665657320616e642f60448201526a6f722073657474696e677360a81b6064820152608401610319565b600c5484146128a45760405162461bcd60e51b815260206004820152602660248201527f4e756d626572206f66205472616e73666572206665657320646f6573206e6f74604482015265040dac2e8c6d60d31b6064820152608401610319565b600d548151146129065760405162461bcd60e51b815260206004820152602760248201527f4e756d626572206f66204f666665722073657474696e677320646f6573206e6f6044820152660e840dac2e8c6d60cb1b6064820152608401610319565b8860005b88811015612a72576000876001600160401b0381111561292c5761292c613a49565b604051908082528060200260200182016040528015612955578160200160208202803683370190505b50905060005b88811015612a3f5773__UintLibrary___________________________630bd4715e8d8661298881613a02565b97508151811061299a5761299a613a33565b60200260200101516040518263ffffffff1660e01b81526004016129c091815260200190565b60206040518083038186803b1580156129d857600080fd5b505af41580156129ec573d6000803e3d6000fd5b505050506040513d601f19601f82011682018060405250810190612a109190613521565b828281518110612a2257612a22613a33565b602090810291909101015280612a3781613a02565b91505061295b565b5080868381518110612a5357612a53613a33565b6020026020010181905250508080612a6a90613a02565b91505061290a565b5060005b85811015612b5a5773__UintLibrary___________________________630bd4715e8b84612aa381613a02565b955081518110612ab557612ab5613a33565b60200260200101516040518263ffffffff1660e01b8152600401612adb91815260200190565b60206040518083038186803b158015612af357600080fd5b505af4158015612b07573d6000803e3d6000fd5b505050506040513d601f19601f82011682018060405250810190612b2b9190613521565b848281518110612b3d57612b3d613a33565b602090810291909101015280612b5281613a02565b915050612a76565b5060005b8251811015612c435773__UintLibrary___________________________630bd4715e8b84612b8c81613a02565b955081518110612b9e57612b9e613a33565b60200260200101516040518263ffffffff1660e01b8152600401612bc491815260200190565b60206040518083038186803b158015612bdc57600080fd5b505af4158015612bf0573d6000803e3d6000fd5b505050506040513d601f19601f82011682018060405250810190612c149190613521565b838281518110612c2657612c26613a33565b602090810291909101015280612c3b81613a02565b915050612b5e565b50612c4f848484610cb2565b7f09b3b89daeb2f093dfbba34628427631adc467324bf0a40cfe8a7ab63cd2befb848484604051612c8293929190613689565b60405180910390a150505050505050505050565b600a546060906000906001600160401b03811115612cb657612cb6613a49565b604051908082528060200260200182016040528015612cdf578160200160208202803683370190505b50905060005b600a54811015612ddf5773__Library_______________________________63caa8f589600a8381548110612d1c57612d1c613a33565b906000526020600020016040518263ffffffff1660e01b8152600401612d429190613776565b60006040518083038186803b158015612d5a57600080fd5b505af4158015612d6e573d6000803e3d6000fd5b505050506040513d6000823e601f3d908101601f19168201604052612d9691908101906132dc565b600081518110612da857612da8613a33565b6020026020010151828281518110612dc257612dc2613a33565b602090810291909101015280612dd781613a02565b915050612ce5565b50919050565b828054612df1906139cd565b90600052602060002090601f016020900481019282612e135760008555612e59565b82601f10612e2c57805160ff1916838001178555612e59565b82800160010185558215612e59579182015b82811115612e59578251825591602001919060010190612e3e565b50612e65929150612ec1565b5090565b828054828255906000526020600020908101928215612e595791602002820182811115612e59578251825591602001919060010190612e3e565b508054600082559060005260206000209081019061093e9190612ed6565b5b80821115612e655760008155600101612ec2565b80821115612e65576000612eea8282612ef3565b50600101612ed6565b508054612eff906139cd565b6000825580601f10612f0f575050565b601f01602090049060005260206000209081019061093e9190612ec1565b8035610c3781613a5f565b600082601f830112612f4957600080fd5b81356020612f5e612f598361393a565b61390a565b80838252828201915082860187848660051b8901011115612f7e57600080fd5b60005b85811015612f9d57813584529284019290840190600101612f81565b5090979650505050505050565b600082601f830112612fbb57600080fd5b81356001600160401b03811115612fd457612fd4613a49565b612fe7601f8201601f191660200161390a565b818152846020838601011115612ffc57600080fd5b816020850160208301376000918101602001919091529392505050565b6000806040838503121561302c57600080fd5b823561303781613a5f565b9150602083013561304781613a5f565b809150509250929050565b60008060006060848603121561306757600080fd5b833561307281613a5f565b9250602084013561308281613a5f565b929592945050506040919091013590565b600080604083850312156130a657600080fd5b82356130b181613a5f565b946020939093013593505050565b600080600080608085870312156130d557600080fd5b84356130e081613a5f565b9350602085013592506040850135915060608501356001600160401b0381111561310957600080fd5b61311587828801612faa565b91505092959194509250565b6000602080838503121561313457600080fd5b82516001600160401b0381111561314a57600080fd5b8301601f8101851361315b57600080fd5b8051613169612f598261393a565b80828252848201915084840188868560051b870101111561318957600080fd5b600094505b838510156131b55780516131a181613a5f565b83526001949094019391850191850161318e565b50979650505050505050565b600080600080600060a086880312156131d957600080fd5b6001600160401b0386358110156131ef57600080fd5b8635870188601f82011261320257600080fd5b80356020613212612f598361393a565b8083825282820191508285018d848660051b880101111561323257600080fd5b60005b8581101561326c57878235111561324b57600080fd5b61325a8f8684358a0101612f38565b84529284019290840190600101613235565b50909a5050508901359150508181111561328557600080fd5b61329189828a01612f38565b9550506040870135818111156132a657600080fd5b6132b289828a01612f38565b945050506132c260608701612f2d565b91506132d060808701612f2d565b90509295509295909350565b600060208083850312156132ef57600080fd5b82516001600160401b0381111561330557600080fd5b8301601f8101851361331657600080fd5b8051613324612f598261393a565b80828252848201915084840188868560051b870101111561334457600080fd5b600094505b838510156131b5578051835260019490940193918501918501613349565b6000602080838503121561337a57600080fd5b82356001600160401b038082111561339157600080fd5b818501915085601f8301126133a557600080fd5b81356133b3612f598261393a565b80828252858201915085850189878560051b88010111156133d357600080fd5b6000805b8581101561340e578235878111156133ed578283fd5b6133fb8d8b838c0101612faa565b86525093880193918801916001016133d7565b50919a9950505050505050505050565b6000602080838503121561343157600080fd5b82516001600160401b0381111561344757600080fd5b8301601f8101851361345857600080fd5b8051613466612f598261393a565b80828252848201915084840188868560061b870101111561348657600080fd5b60009450845b848110156134dd57604080838c0312156134a4578687fd5b6134ac6138e2565b83516134b781613a5f565b8152838901516134c681613a74565b818a0152855293870193919091019060010161348c565b509098975050505050505050565b6000602082840312156134fd57600080fd5b813561074081613a74565b60006020828403121561351a57600080fd5b5035919050565b60006020828403121561353357600080fd5b5051919050565b6000806040838503121561354d57600080fd5b82359150602083013561304781613a5f565b6000806040838503121561357257600080fd5b50508035926020909101359150565b6000806040838503121561359457600080fd5b505080516020909101519092909150565b6000806000606084860312156135ba57600080fd5b8351925060208401519150604084015190509250925092565b600081518084526020808501945080840160005b83811015613603578151875295820195908201906001016135e7565b509495945050505050565b6000815180845260005b8181101561363457602081850181015186830182015201613618565b81811115613646576000602083870101525b50601f01601f19169290920160200192915050565b6001600160a01b0391909116815260200190565b6001600160a01b0392831681529116602082015260400190565b6000606082016060835280865180835260808501915060808160051b8601019250602080890160005b838110156136e057607f198887030185526136ce8683516135d3565b955093820193908201906001016136b2565b5050858403818701525050506136f681866135d3565b9050828103604084015261370a81856135d3565b9695505050505050565b6000602080830181845280855180835260408601915060408160051b870101925083870160005b8281101561376957603f1988860301845261375785835161360e565b9450928501929085019060010161373b565b5092979650505050505050565b600060208083526000845481600182811c91508083168061379857607f831692505b8583108114156137b657634e487b7160e01b85526022600452602485fd5b8786018381526020018180156137d357600181146137e45761380f565b60ff1986168252878201965061380f565b60008b81526020902060005b86811015613809578154848201529085019089016137f0565b83019750505b50949998505050505050505050565b6020808252602e908201527f496e697469616c697a61626c653a20636f6e747261637420697320616c72656160408201526d191e481a5b9a5d1a585b1a5e995960921b606082015260800190565b888152602081018890526001600160a01b03878116604083015286151560608301528516608082015283151560a082015261010060c082018190526000906138b68382018661360e565b9150508260e08301529998505050505050505050565b9283526020830191909152604082015260600190565b604080519081016001600160401b038111828210171561390457613904613a49565b60405290565b604051601f8201601f191681016001600160401b038111828210171561393257613932613a49565b604052919050565b60006001600160401b0382111561395357613953613a49565b5060051b60200190565b6000821982111561397057613970613a1d565b500190565b60008261399257634e487b7160e01b600052601260045260246000fd5b500490565b60008160001904831182151516156139b1576139b1613a1d565b500290565b6000828210156139c8576139c8613a1d565b500390565b600181811c908216806139e157607f821691505b60208210811415612ddf57634e487b7160e01b600052602260045260246000fd5b6000600019821415613a1657613a16613a1d565b5060010190565b634e487b7160e01b600052601160045260246000fd5b634e487b7160e01b600052603260045260246000fd5b634e487b7160e01b600052604160045260246000fd5b6001600160a01b038116811461093e57600080fd5b801515811461093e57600080fdfebb7b4a454dc3493923482f07822329ed19e8244eff582cc204f8554c3620c3fda264697066735822122061dc09da0ec5fad889ce67b5a3e464bdc57f1c3e2e74315f67875e365e662ab964736f6c63430008070033",
  "immutableReferences": {},
  "source": "// SPDX-License-Identifier: GPL-3.0\r\n\r\npragma solidity 0.8.7;\r\n\r\n/**\r\n Treasury receives all the payments and assigns dividends to token holders.\r\n Public Certificate Pool contract can ask for its owners to eb refunded even if they do not own tokens.\r\n\r\n First dividends must be assigned to an account and then the account owner can withdraw the funds.\r\n Both actions must be triggered by the account owner.\r\n\r\n  Events : \r\n    - New Prices Added : list of prices\r\n    - Payment recieved : payer, amount, new total aggregated contract amount\r\n    - Refund : who, amount, among how many\r\n    - Assign Dividends : who, amount (number of tokens), among how many (total supply)\r\n    - Withdraw : who, how much\r\n */\r\n\r\nimport \"../Interfaces/ITreasury.sol\";\r\nimport \"../Libraries/UintLibrary.sol\";\r\nimport \"../Libraries/ItemsLibrary.sol\";\r\nimport \"../Libraries/Library.sol\";\r\nimport \"../Base/StdPropositionBaseContract.sol\";\r\nimport \"@openzeppelin/contracts-upgradeable/token/ERC20/IERC20Upgradeable.sol\";\r\nimport \"../Base/CreditorBaseContract.sol\";\r\nimport \"../Interfaces/IPayments.sol\";\r\n\r\n\r\ncontract Treasury is ITreasury, StdPropositionBaseContract, CreditorBaseContract{\r\n    using Library for *;\r\n    using UintLibrary for *;\r\n    using ItemsLibrary for *;\r\n\r\n    // EVENTS /////////////////////////////////////////\r\n    event _NewSettings(uint[][] Fees, uint[] TransactionFees, uint[] OfferSettings);\r\n    event _Pay(address indexed Payer, uint Amount, uint AggregatedAmount, uint256 tokenContractId);\r\n    event _AssignDividend(address indexed Recipient, uint Amount, uint TotalSupply, uint256 tokenContractId);\r\n    event _Withdraw(address indexed Recipient, uint Amount, uint256 tokenContractId);\r\n\r\n    // DATA /////////////////////////////////////////\r\n    // prices parameters\r\n    uint256[][] private _Fees;\r\n    uint256[] private _TransferFees;\r\n    uint256[] private _OfferSettings;\r\n\r\n    // last amount at which dividends where assigned for each token owner\r\n    uint256[] private _AggregatedDividendAmount;\r\n    mapping(uint256 => mapping(address => uint256)) private _lastAssigned;\r\n\r\n    // dividends per token owner\r\n    mapping(uint256 => mapping(address => ItemsLibrary._BalanceStruct)) private _balances;\r\n\r\n    // MODIFIERS /////////////////////////////////////////\r\n    modifier FeesOK(uint256[][] memory Fees){\r\n        if(_Fees.length > 0){\r\n            for(uint256 i=0; i < Fees.length; i++){\r\n                require(_Fees[0].length + 1 == Fees[i].length, \"Number of Fees does not match\");\r\n            }\r\n        }\r\n        _;\r\n    }\r\n    modifier TransferFeesOK(uint256[] memory TransferFees){\r\n        if(_TransferFees.length > 0){\r\n            require(_TransferFees.length == TransferFees.length, \"Number of Transfer Fees does not match\");\r\n        }\r\n        _;\r\n    }\r\n    modifier OfferSettingsOK(uint256[] memory OfferSettings){\r\n        if(_OfferSettings.length > 0){\r\n            require(_OfferSettings.length == OfferSettings.length, \"Number of Offer Settings does not match\");\r\n        }\r\n        _;\r\n    }\r\n    // CONSTRUCTOR /////////////////////////////////////////\r\n    function Treasury_init(uint256[][] memory Fees, uint256[] memory TransferFees, uint256[] memory OfferSettings, address managerContractAddress, address chairPerson) public initializer \r\n    {\r\n        super.StdPropositionBaseContract_init(chairPerson, managerContractAddress);\r\n\r\n        uint256[][] memory initFees = new uint256[][](Fees.length);\r\n\r\n        if(Fees.length > 0){\r\n            for(uint i=0; i < initFees.length; i++){\r\n                uint256[] memory FeesForToken = new uint256[](Fees[i].length + 1);\r\n                FeesForToken[0] = i;\r\n                for(uint j=0; j < Fees[i].length; j++){\r\n                    FeesForToken[j + 1] = Fees[i][j];\r\n                }\r\n                initFees[i] = FeesForToken;\r\n            }\r\n        }\r\n\r\n        InternalupdateSettings(initFees, TransferFees, OfferSettings);\r\n    }\r\n\r\n    // GOVERNANCE /////////////////////////////////////////\r\n    function checkProposition(bytes[] memory NewValues) internal override \r\n    {\r\n        require(NewValues.length >= 3, \"Missing Settings\");\r\n    }\r\n\r\n    function UpdateAll() internal override\r\n    {\r\n        uint256 count;\r\n        bytes32[] memory ProposedNewValues = PropositionsToBytes32();\r\n        uint256 numberOfTokens = UintLibrary.Bytes32ToUint(ProposedNewValues[count++]);\r\n        uint256 FeesPerToken = UintLibrary.Bytes32ToUint(ProposedNewValues[count++]);\r\n        uint256 ItemsPerToken = FeesPerToken + 1;\r\n        uint256 numberOfTransferFees = UintLibrary.Bytes32ToUint(ProposedNewValues[count++]);\r\n        uint256[][] memory newFees = new uint256[][](numberOfTokens);\r\n        uint256[] memory newTransferFees = new uint256[](numberOfTransferFees);\r\n        uint256[] memory newOfferSettings = new uint256[](ProposedNewValues.length - (numberOfTokens * ItemsPerToken) - count - numberOfTransferFees);\r\n\r\n        require(ProposedNewValues.length >= count + (numberOfTokens * ItemsPerToken) + numberOfTransferFees, \"There are some missing fees and/or settings\");\r\n        require(numberOfTransferFees == _TransferFees.length, \"Number of Transfer fees does not match\");\r\n        require(newOfferSettings.length == _OfferSettings.length, \"Number of Offer settings does not match\");\r\n\r\n        uint index = count;\r\n\r\n        for (uint256 i=0; i < numberOfTokens; i++) {\r\n            uint256[] memory newFeesForToken = new uint256[](ItemsPerToken);\r\n            for(uint256 j=0; j < ItemsPerToken; j++){\r\n                newFeesForToken[j] = UintLibrary.Bytes32ToUint(ProposedNewValues[index++]);\r\n            }\r\n            newFees[i] = newFeesForToken;\r\n        }\r\n\r\n        for (uint256 j=0; j < numberOfTransferFees; j++) {\r\n            newTransferFees[j] = UintLibrary.Bytes32ToUint(ProposedNewValues[index++]);\r\n        }\r\n\r\n        for (uint256 k=0; k < newOfferSettings.length; k++) {\r\n            newOfferSettings[k] = UintLibrary.Bytes32ToUint(ProposedNewValues[index++]);\r\n        }\r\n\r\n        InternalupdateSettings(newFees, newTransferFees, newOfferSettings);\r\n\r\n        emit _NewSettings(newFees, newTransferFees, newOfferSettings);\r\n    }\r\n\r\n    function InternalupdateSettings(uint256[][] memory Fees, uint256[] memory TransferFees, uint256[] memory OfferSettings) internal\r\n        FeesOK(Fees)\r\n        TransferFeesOK(TransferFees)\r\n        OfferSettingsOK(OfferSettings)\r\n    {\r\n        for (uint i=0; i < Fees.length; i++) {\r\n            uint256 paymentTokenID = Fees[i][0];\r\n            if(paymentTokenID < _Fees.length){\r\n                for(uint p=0; p < _Fees[paymentTokenID].length; p++){\r\n                    _Fees[paymentTokenID][p] = Fees[i][p + 1];\r\n                }\r\n            }\r\n            else {\r\n                uint256[] memory FeesForNewPaymentID = new uint256[](Fees[i].length - 1);\r\n                for(uint p=0; p < FeesForNewPaymentID.length; p++){\r\n                    FeesForNewPaymentID[p] = Fees[i][p + 1];\r\n                }\r\n                _Fees.push(FeesForNewPaymentID);\r\n            }\r\n        }\r\n\r\n        for (uint j=0; j < TransferFees.length; j++) {\r\n            if(j < _TransferFees.length) _TransferFees[j] = TransferFees[j];\r\n            else _TransferFees.push(TransferFees[j]);\r\n        }\r\n\r\n        for (uint k=0; k < OfferSettings.length; k++) {\r\n            if(k < _OfferSettings.length) _OfferSettings[k] = OfferSettings[k];\r\n            else _OfferSettings.push(OfferSettings[k]);\r\n        }\r\n    }\r\n\r\n    // FUNCTIONALITY /////////////////////////////////////////\r\n    function onCreditReceived(address sender, uint256 amount, uint256 paymentTokenID, bytes memory data) internal override\r\n    {\r\n        if(paymentTokenID < _AggregatedDividendAmount.length) _AggregatedDividendAmount[paymentTokenID] += amount;\r\n        else {\r\n            for(uint i = _AggregatedDividendAmount.length; i < paymentTokenID; i++){\r\n                _AggregatedDividendAmount.push(0);\r\n            }\r\n            _AggregatedDividendAmount.push(amount);\r\n        }\r\n        \r\n        emit _Pay(sender, amount, _AggregatedDividendAmount[paymentTokenID], paymentTokenID);\r\n    }\r\n\r\n    function InternalonTokenBalanceChanged(address from, address to, uint256 amount) internal override\r\n    {\r\n        super.InternalonTokenBalanceChanged(from, to, amount);\r\n        if(address(0) != from) {\r\n            for(uint256 i=0; i < _AggregatedDividendAmount.length; i++){\r\n                InternalAssignDividends(from, i);\r\n            }\r\n        }\r\n        if(address(0) != to) {\r\n            for(uint256 i=0; i < _AggregatedDividendAmount.length; i++){\r\n                InternalAssignDividends(to, i);\r\n            }\r\n        }\r\n    }\r\n\r\n    function InternalAssignDividends(address recipient, uint256 paymentTokenID) internal\r\n    {\r\n        if(paymentTokenID < _AggregatedDividendAmount.length){\r\n            (uint totalOffBalance, uint DividendOffBalance) = sumUpTotalOffBalance(recipient, paymentTokenID);\r\n            _lastAssigned[paymentTokenID][recipient] = _AggregatedDividendAmount[paymentTokenID];\r\n        \r\n            if(totalOffBalance > 0){   \r\n            ItemsLibrary.addBalance(_balances[paymentTokenID][recipient], totalOffBalance, DividendOffBalance);\r\n            emit _AssignDividend(recipient, totalOffBalance, DividendOffBalance, paymentTokenID);\r\n            }\r\n        }  \r\n    }\r\n\r\n    function withdraw(uint amount, uint256 paymentTokenID) external override\r\n    {\r\n        InternalWithdraw(amount, paymentTokenID);\r\n    }\r\n\r\n    function withdrawAll(uint256 paymentTokenID) external override\r\n    {\r\n        uint All = retrieveFullBalanceInternal(msg.sender, paymentTokenID);\r\n        InternalWithdraw(All, paymentTokenID);\r\n    }\r\n\r\n    function InternalWithdraw(uint amount, uint256 paymentTokenID) internal \r\n    {\r\n        InternalAssignDividends(msg.sender, paymentTokenID);\r\n        ItemsLibrary.InternalWithdraw(\r\n            _balances[paymentTokenID][msg.sender], \r\n            amount, \r\n            msg.sender, \r\n            true, \r\n            address(IPayments(_managerContract.retrieveTransparentProxies()[uint256(Library.TransparentProxies.Payments)]).retrieveSettings()[paymentTokenID].TokenContract),\r\n            false,\r\n            bytes(\"\"),\r\n            paymentTokenID\r\n        );\r\n\r\n        emit _Withdraw(msg.sender, amount, paymentTokenID);\r\n    }\r\n\r\n    function retrieveLastAssigned(address addr, uint256 paymentTokenID) external override view returns(uint)\r\n    {\r\n        return _lastAssigned[paymentTokenID][addr];\r\n    }\r\n\r\n    function retrieveFullBalance(address addr, uint256 paymentTokenID) external override view returns(uint)\r\n    {\r\n        return retrieveFullBalanceInternal(addr, paymentTokenID);\r\n    }\r\n\r\n    function retrieveFullBalanceInternal(address addr, uint256 paymentTokenID) internal view returns(uint)\r\n    {\r\n        (uint total, uint dividend) = sumUpTotal(addr, paymentTokenID);\r\n        return total / dividend;\r\n    }\r\n\r\n    function retrieveSettings() external override view returns(uint256[][] memory, uint256[] memory, uint256[] memory)\r\n    {\r\n        return(_Fees, _TransferFees, _OfferSettings);\r\n    }\r\n\r\n    function retrieveAggregatedAmount(uint256 paymentTokenID) external override view returns(uint){\r\n        if(paymentTokenID < _AggregatedDividendAmount.length) return _AggregatedDividendAmount[paymentTokenID];\r\n        else return 0;\r\n    }\r\n\r\n    function sumUpTotal(address addr, uint256 paymentTokenID) internal view returns (uint, uint)\r\n    {\r\n        (uint totalOnBalance, uint commonDividendOnBalance) = sumUpTotalOnBalance(addr, paymentTokenID);\r\n        (uint totalOffBalance, uint DividendOffBalance) = sumUpTotalOffBalance(addr, paymentTokenID);\r\n\r\n        uint total = (totalOnBalance * DividendOffBalance) + (totalOffBalance * commonDividendOnBalance);\r\n        uint CommonDividend = commonDividendOnBalance * DividendOffBalance;\r\n\r\n        return (total, CommonDividend);\r\n    }\r\n\r\n    function sumUpTotalOnBalance(address addr, uint256 paymentTokenID) internal view returns (uint, uint)\r\n    {\r\n        return ItemsLibrary.sumUpTotal(_balances[paymentTokenID][addr]);\r\n    }\r\n\r\n    function sumUpTotalOffBalance(address addr, uint256 paymentTokenID) internal view returns (uint, uint)\r\n    {\r\n        uint total = 0;\r\n\r\n        if(paymentTokenID < _AggregatedDividendAmount.length && \r\n            _lastAssigned[paymentTokenID][addr] < _AggregatedDividendAmount[paymentTokenID])\r\n        {\r\n            total = (_AggregatedDividendAmount[paymentTokenID] - _lastAssigned[paymentTokenID][addr]) * GetTokensBalance(addr);           \r\n        }\r\n\r\n        return (total, totalSupply());\r\n    }\r\n\r\n\r\n}",
  "sourcePath": "C:\\Users\\d-aam\\GitHub\\Originals\\contracts\\MainContracts\\Treasury.sol",
  "compiler": {
    "name": "solc",
    "version": "0.8.7+commit.e28d00a7.Emscripten.clang"
  },
  "schemaVersion": "3.4.3",
  "updatedAt": "2022-04-07T11:56:07.835Z",
  "devdoc": {
    "kind": "dev",
    "methods": {},
    "version": 1
  },
  "userdoc": {
    "kind": "user",
    "methods": {},
    "version": 1
  }
}